{
  "address": "0x69f9574660615eEBE6FBa64cA3C38cBca62C0347",
  "abi": [
    {
      "inputs": [
        {
          "internalType": "string",
          "name": "_name",
          "type": "string"
        },
        {
          "internalType": "string",
          "name": "_symbol",
          "type": "string"
        },
        {
          "internalType": "address",
          "name": "_owner",
          "type": "address"
        }
      ],
      "stateMutability": "nonpayable",
      "type": "constructor"
    },
    {
      "inputs": [
        {
          "internalType": "address",
          "name": "sender",
          "type": "address"
        },
        {
          "internalType": "uint256",
          "name": "tokenId",
          "type": "uint256"
        },
        {
          "internalType": "address",
          "name": "owner",
          "type": "address"
        }
      ],
      "name": "ERC721IncorrectOwner",
      "type": "error"
    },
    {
      "inputs": [
        {
          "internalType": "address",
          "name": "operator",
          "type": "address"
        },
        {
          "internalType": "uint256",
          "name": "tokenId",
          "type": "uint256"
        }
      ],
      "name": "ERC721InsufficientApproval",
      "type": "error"
    },
    {
      "inputs": [
        {
          "internalType": "address",
          "name": "approver",
          "type": "address"
        }
      ],
      "name": "ERC721InvalidApprover",
      "type": "error"
    },
    {
      "inputs": [
        {
          "internalType": "address",
          "name": "operator",
          "type": "address"
        }
      ],
      "name": "ERC721InvalidOperator",
      "type": "error"
    },
    {
      "inputs": [
        {
          "internalType": "address",
          "name": "owner",
          "type": "address"
        }
      ],
      "name": "ERC721InvalidOwner",
      "type": "error"
    },
    {
      "inputs": [
        {
          "internalType": "address",
          "name": "receiver",
          "type": "address"
        }
      ],
      "name": "ERC721InvalidReceiver",
      "type": "error"
    },
    {
      "inputs": [
        {
          "internalType": "address",
          "name": "sender",
          "type": "address"
        }
      ],
      "name": "ERC721InvalidSender",
      "type": "error"
    },
    {
      "inputs": [
        {
          "internalType": "uint256",
          "name": "tokenId",
          "type": "uint256"
        }
      ],
      "name": "ERC721NonexistentToken",
      "type": "error"
    },
    {
      "inputs": [],
      "name": "IncorrectAmountSent",
      "type": "error"
    },
    {
      "inputs": [],
      "name": "NotAllowed",
      "type": "error"
    },
    {
      "inputs": [
        {
          "internalType": "address",
          "name": "owner",
          "type": "address"
        }
      ],
      "name": "OwnableInvalidOwner",
      "type": "error"
    },
    {
      "inputs": [
        {
          "internalType": "address",
          "name": "account",
          "type": "address"
        }
      ],
      "name": "OwnableUnauthorizedAccount",
      "type": "error"
    },
    {
      "inputs": [],
      "name": "PlanAlreadyExists",
      "type": "error"
    },
    {
      "inputs": [],
      "name": "PlanNotFound",
      "type": "error"
    },
    {
      "inputs": [],
      "name": "PriceCannotBeZero",
      "type": "error"
    },
    {
      "anonymous": false,
      "inputs": [
        {
          "indexed": true,
          "internalType": "address",
          "name": "owner",
          "type": "address"
        },
        {
          "indexed": true,
          "internalType": "address",
          "name": "approved",
          "type": "address"
        },
        {
          "indexed": true,
          "internalType": "uint256",
          "name": "tokenId",
          "type": "uint256"
        }
      ],
      "name": "Approval",
      "type": "event"
    },
    {
      "anonymous": false,
      "inputs": [
        {
          "indexed": true,
          "internalType": "address",
          "name": "owner",
          "type": "address"
        },
        {
          "indexed": true,
          "internalType": "address",
          "name": "operator",
          "type": "address"
        },
        {
          "indexed": false,
          "internalType": "bool",
          "name": "approved",
          "type": "bool"
        }
      ],
      "name": "ApprovalForAll",
      "type": "event"
    },
    {
      "anonymous": false,
      "inputs": [
        {
          "indexed": true,
          "internalType": "address",
          "name": "previousOwner",
          "type": "address"
        },
        {
          "indexed": true,
          "internalType": "address",
          "name": "newOwner",
          "type": "address"
        }
      ],
      "name": "OwnershipTransferred",
      "type": "event"
    },
    {
      "anonymous": false,
      "inputs": [
        {
          "indexed": true,
          "internalType": "address",
          "name": "from",
          "type": "address"
        },
        {
          "indexed": true,
          "internalType": "address",
          "name": "to",
          "type": "address"
        },
        {
          "indexed": true,
          "internalType": "uint256",
          "name": "tokenId",
          "type": "uint256"
        }
      ],
      "name": "Transfer",
      "type": "event"
    },
    {
      "inputs": [
        {
          "internalType": "address",
          "name": "to",
          "type": "address"
        },
        {
          "internalType": "uint256",
          "name": "tokenId",
          "type": "uint256"
        }
      ],
      "name": "approve",
      "outputs": [],
      "stateMutability": "nonpayable",
      "type": "function"
    },
    {
      "inputs": [
        {
          "internalType": "address",
          "name": "owner",
          "type": "address"
        }
      ],
      "name": "balanceOf",
      "outputs": [
        {
          "internalType": "uint256",
          "name": "",
          "type": "uint256"
        }
      ],
      "stateMutability": "view",
      "type": "function"
    },
    {
      "inputs": [
        {
          "internalType": "uint256",
          "name": "_tokenId",
          "type": "uint256"
        }
      ],
      "name": "cancelMembership",
      "outputs": [],
      "stateMutability": "nonpayable",
      "type": "function"
    },
    {
      "inputs": [
        {
          "internalType": "string",
          "name": "_planName",
          "type": "string"
        }
      ],
      "name": "createMembership",
      "outputs": [],
      "stateMutability": "payable",
      "type": "function"
    },
    {
      "inputs": [
        {
          "internalType": "uint256",
          "name": "_price",
          "type": "uint256"
        },
        {
          "internalType": "string",
          "name": "_name",
          "type": "string"
        }
      ],
      "name": "createPlan",
      "outputs": [
        {
          "components": [
            {
              "internalType": "string",
              "name": "name",
              "type": "string"
            },
            {
              "internalType": "uint256",
              "name": "price",
              "type": "uint256"
            }
          ],
          "internalType": "struct MemberMe.Plan",
          "name": "",
          "type": "tuple"
        }
      ],
      "stateMutability": "nonpayable",
      "type": "function"
    },
    {
      "inputs": [
        {
          "internalType": "uint256",
          "name": "_tokenId",
          "type": "uint256"
        }
      ],
      "name": "expireMembership",
      "outputs": [],
      "stateMutability": "nonpayable",
      "type": "function"
    },
    {
      "inputs": [],
      "name": "getAllMemberships",
      "outputs": [
        {
          "components": [
            {
              "internalType": "address",
              "name": "owner",
              "type": "address"
            },
            {
              "internalType": "string",
              "name": "planName",
              "type": "string"
            },
            {
              "internalType": "enum MemberMe.MembershipStatus",
              "name": "status",
              "type": "uint8"
            },
            {
              "internalType": "uint256",
              "name": "createdAt",
              "type": "uint256"
            },
            {
              "internalType": "uint256",
              "name": "lastRenewedAt",
              "type": "uint256"
            }
          ],
          "internalType": "struct MemberMe.Membership[]",
          "name": "",
          "type": "tuple[]"
        }
      ],
      "stateMutability": "view",
      "type": "function"
    },
    {
      "inputs": [],
      "name": "getAllPlans",
      "outputs": [
        {
          "components": [
            {
              "internalType": "string",
              "name": "name",
              "type": "string"
            },
            {
              "internalType": "uint256",
              "name": "price",
              "type": "uint256"
            }
          ],
          "internalType": "struct MemberMe.Plan[]",
          "name": "",
          "type": "tuple[]"
        }
      ],
      "stateMutability": "view",
      "type": "function"
    },
    {
      "inputs": [
        {
          "internalType": "uint256",
          "name": "tokenId",
          "type": "uint256"
        }
      ],
      "name": "getApproved",
      "outputs": [
        {
          "internalType": "address",
          "name": "",
          "type": "address"
        }
      ],
      "stateMutability": "view",
      "type": "function"
    },
    {
      "inputs": [
        {
          "internalType": "uint256",
          "name": "_tokenId",
          "type": "uint256"
        }
      ],
      "name": "getMembership",
      "outputs": [
        {
          "components": [
            {
              "internalType": "address",
              "name": "owner",
              "type": "address"
            },
            {
              "internalType": "string",
              "name": "planName",
              "type": "string"
            },
            {
              "internalType": "enum MemberMe.MembershipStatus",
              "name": "status",
              "type": "uint8"
            },
            {
              "internalType": "uint256",
              "name": "createdAt",
              "type": "uint256"
            },
            {
              "internalType": "uint256",
              "name": "lastRenewedAt",
              "type": "uint256"
            }
          ],
          "internalType": "struct MemberMe.Membership",
          "name": "",
          "type": "tuple"
        }
      ],
      "stateMutability": "view",
      "type": "function"
    },
    {
      "inputs": [
        {
          "internalType": "address",
          "name": "owner",
          "type": "address"
        },
        {
          "internalType": "address",
          "name": "operator",
          "type": "address"
        }
      ],
      "name": "isApprovedForAll",
      "outputs": [
        {
          "internalType": "bool",
          "name": "",
          "type": "bool"
        }
      ],
      "stateMutability": "view",
      "type": "function"
    },
    {
      "inputs": [
        {
          "internalType": "uint256",
          "name": "",
          "type": "uint256"
        }
      ],
      "name": "memberships",
      "outputs": [
        {
          "internalType": "address",
          "name": "owner",
          "type": "address"
        },
        {
          "internalType": "string",
          "name": "planName",
          "type": "string"
        },
        {
          "internalType": "enum MemberMe.MembershipStatus",
          "name": "status",
          "type": "uint8"
        },
        {
          "internalType": "uint256",
          "name": "createdAt",
          "type": "uint256"
        },
        {
          "internalType": "uint256",
          "name": "lastRenewedAt",
          "type": "uint256"
        }
      ],
      "stateMutability": "view",
      "type": "function"
    },
    {
      "inputs": [],
      "name": "name",
      "outputs": [
        {
          "internalType": "string",
          "name": "",
          "type": "string"
        }
      ],
      "stateMutability": "view",
      "type": "function"
    },
    {
      "inputs": [],
      "name": "owner",
      "outputs": [
        {
          "internalType": "address",
          "name": "",
          "type": "address"
        }
      ],
      "stateMutability": "view",
      "type": "function"
    },
    {
      "inputs": [
        {
          "internalType": "uint256",
          "name": "tokenId",
          "type": "uint256"
        }
      ],
      "name": "ownerOf",
      "outputs": [
        {
          "internalType": "address",
          "name": "",
          "type": "address"
        }
      ],
      "stateMutability": "view",
      "type": "function"
    },
    {
      "inputs": [
        {
          "internalType": "string",
          "name": "",
          "type": "string"
        }
      ],
      "name": "planPrices",
      "outputs": [
        {
          "internalType": "uint256",
          "name": "",
          "type": "uint256"
        }
      ],
      "stateMutability": "view",
      "type": "function"
    },
    {
      "inputs": [
        {
          "internalType": "uint256",
          "name": "",
          "type": "uint256"
        }
      ],
      "name": "plans",
      "outputs": [
        {
          "internalType": "string",
          "name": "name",
          "type": "string"
        },
        {
          "internalType": "uint256",
          "name": "price",
          "type": "uint256"
        }
      ],
      "stateMutability": "view",
      "type": "function"
    },
    {
      "inputs": [
        {
          "internalType": "uint256",
          "name": "_tokenId",
          "type": "uint256"
        },
        {
          "internalType": "uint256",
          "name": "_currentTime",
          "type": "uint256"
        }
      ],
      "name": "renewMembership",
      "outputs": [],
      "stateMutability": "payable",
      "type": "function"
    },
    {
      "inputs": [],
      "name": "renounceOwnership",
      "outputs": [],
      "stateMutability": "nonpayable",
      "type": "function"
    },
    {
      "inputs": [
        {
          "internalType": "address",
          "name": "from",
          "type": "address"
        },
        {
          "internalType": "address",
          "name": "to",
          "type": "address"
        },
        {
          "internalType": "uint256",
          "name": "tokenId",
          "type": "uint256"
        }
      ],
      "name": "safeTransferFrom",
      "outputs": [],
      "stateMutability": "nonpayable",
      "type": "function"
    },
    {
      "inputs": [
        {
          "internalType": "address",
          "name": "from",
          "type": "address"
        },
        {
          "internalType": "address",
          "name": "to",
          "type": "address"
        },
        {
          "internalType": "uint256",
          "name": "tokenId",
          "type": "uint256"
        },
        {
          "internalType": "bytes",
          "name": "data",
          "type": "bytes"
        }
      ],
      "name": "safeTransferFrom",
      "outputs": [],
      "stateMutability": "nonpayable",
      "type": "function"
    },
    {
      "inputs": [
        {
          "internalType": "address",
          "name": "operator",
          "type": "address"
        },
        {
          "internalType": "bool",
          "name": "approved",
          "type": "bool"
        }
      ],
      "name": "setApprovalForAll",
      "outputs": [],
      "stateMutability": "nonpayable",
      "type": "function"
    },
    {
      "inputs": [
        {
          "internalType": "bytes4",
          "name": "interfaceId",
          "type": "bytes4"
        }
      ],
      "name": "supportsInterface",
      "outputs": [
        {
          "internalType": "bool",
          "name": "",
          "type": "bool"
        }
      ],
      "stateMutability": "view",
      "type": "function"
    },
    {
      "inputs": [],
      "name": "symbol",
      "outputs": [
        {
          "internalType": "string",
          "name": "",
          "type": "string"
        }
      ],
      "stateMutability": "view",
      "type": "function"
    },
    {
      "inputs": [
        {
          "internalType": "uint256",
          "name": "tokenId",
          "type": "uint256"
        }
      ],
      "name": "tokenURI",
      "outputs": [
        {
          "internalType": "string",
          "name": "",
          "type": "string"
        }
      ],
      "stateMutability": "view",
      "type": "function"
    },
    {
      "inputs": [
        {
          "internalType": "address",
          "name": "from",
          "type": "address"
        },
        {
          "internalType": "address",
          "name": "to",
          "type": "address"
        },
        {
          "internalType": "uint256",
          "name": "tokenId",
          "type": "uint256"
        }
      ],
      "name": "transferFrom",
      "outputs": [],
      "stateMutability": "nonpayable",
      "type": "function"
    },
    {
      "inputs": [
        {
          "internalType": "address",
          "name": "newOwner",
          "type": "address"
        }
      ],
      "name": "transferOwnership",
      "outputs": [],
      "stateMutability": "nonpayable",
      "type": "function"
    }
  ],
  "transactionHash": "0x4aabbf001234a01e00dacc5d8bfc94916ac9f4ffe974535357ec8fe248b4e379",
  "args": [
    "Test Membership",
    "TST",
    "0x40911E2Ab44E9bDcAa1837169482fD6bC9c36144"
  ],
  "numDeployments": 1,
  "solcInputHash": "efa63bce839757fbe1b3906d6da8dd27",
  "bytecode": "0x60806040523480156200001157600080fd5b50604051620043f3380380620043f38339818101604052810190620000379190620003b6565b80838381600090816200004b91906200069b565b5080600190816200005d91906200069b565b505050600073ffffffffffffffffffffffffffffffffffffffff168173ffffffffffffffffffffffffffffffffffffffff1603620000d55760006040517f1e4fbdf7000000000000000000000000000000000000000000000000000000008152600401620000cc919062000793565b60405180910390fd5b620000e681620000f860201b60201c565b506000600a81905550505050620007b0565b6000600660009054906101000a900473ffffffffffffffffffffffffffffffffffffffff16905081600660006101000a81548173ffffffffffffffffffffffffffffffffffffffff021916908373ffffffffffffffffffffffffffffffffffffffff1602179055508173ffffffffffffffffffffffffffffffffffffffff168173ffffffffffffffffffffffffffffffffffffffff167f8be0079c531659141344cd1fd0a4f28419497f9722a3daafe3b4186f6b6457e060405160405180910390a35050565b6000604051905090565b600080fd5b600080fd5b600080fd5b600080fd5b6000601f19601f8301169050919050565b7f4e487b7100000000000000000000000000000000000000000000000000000000600052604160045260246000fd5b6200022782620001dc565b810181811067ffffffffffffffff82111715620002495762000248620001ed565b5b80604052505050565b60006200025e620001be565b90506200026c82826200021c565b919050565b600067ffffffffffffffff8211156200028f576200028e620001ed565b5b6200029a82620001dc565b9050602081019050919050565b60005b83811015620002c7578082015181840152602081019050620002aa565b60008484015250505050565b6000620002ea620002e48462000271565b62000252565b905082815260208101848484011115620003095762000308620001d7565b5b62000316848285620002a7565b509392505050565b600082601f830112620003365762000335620001d2565b5b815162000348848260208601620002d3565b91505092915050565b600073ffffffffffffffffffffffffffffffffffffffff82169050919050565b60006200037e8262000351565b9050919050565b620003908162000371565b81146200039c57600080fd5b50565b600081519050620003b08162000385565b92915050565b600080600060608486031215620003d257620003d1620001c8565b5b600084015167ffffffffffffffff811115620003f357620003f2620001cd565b5b62000401868287016200031e565b935050602084015167ffffffffffffffff811115620004255762000424620001cd565b5b62000433868287016200031e565b925050604062000446868287016200039f565b9150509250925092565b600081519050919050565b7f4e487b7100000000000000000000000000000000000000000000000000000000600052602260045260246000fd5b60006002820490506001821680620004a357607f821691505b602082108103620004b957620004b86200045b565b5b50919050565b60008190508160005260206000209050919050565b60006020601f8301049050919050565b600082821b905092915050565b600060088302620005237fffffffffffffffffffffffffffffffffffffffffffffffffffffffffffffffff82620004e4565b6200052f8683620004e4565b95508019841693508086168417925050509392505050565b6000819050919050565b6000819050919050565b60006200057c62000576620005708462000547565b62000551565b62000547565b9050919050565b6000819050919050565b62000598836200055b565b620005b0620005a78262000583565b848454620004f1565b825550505050565b600090565b620005c7620005b8565b620005d48184846200058d565b505050565b5b81811015620005fc57620005f0600082620005bd565b600181019050620005da565b5050565b601f8211156200064b576200061581620004bf565b6200062084620004d4565b8101602085101562000630578190505b620006486200063f85620004d4565b830182620005d9565b50505b505050565b600082821c905092915050565b6000620006706000198460080262000650565b1980831691505092915050565b60006200068b83836200065d565b9150826002028217905092915050565b620006a68262000450565b67ffffffffffffffff811115620006c257620006c1620001ed565b5b620006ce82546200048a565b620006db82828562000600565b600060209050601f831160018114620007135760008415620006fe578287015190505b6200070a85826200067d565b8655506200077a565b601f1984166200072386620004bf565b60005b828110156200074d5784890151825560018201915060208501945060208101905062000726565b868310156200076d578489015162000769601f8916826200065d565b8355505b6001600288020188555050505b505050505050565b6200078d8162000371565b82525050565b6000602082019050620007aa600083018462000782565b92915050565b613c3380620007c06000396000f3fe60806040526004361061019c5760003560e01c8063714e7131116100ec57806398de396a1161008a578063b88d4fde11610064578063b88d4fde146105e7578063c87b56dd14610610578063e985e9c51461064d578063f2fde38b1461068a5761019c565b806398de396a14610555578063a22cb46514610580578063b1620616146105a95761019c565b806389def320116100c657806389def320146104ba5780638c99f69a146104e35780638da5cb5b146104ff57806395d89b411461052a5761019c565b8063714e71311461044f578063715018a61461047a57806381e168c2146104915761019c565b8063321621d71161015957806346b003251161013357806346b003251461035b5780636352211e14610398578063669469d1146103d557806370a08231146104125761019c565b8063321621d7146102b457806338fbf2c6146102f557806342842e0e146103325761019c565b8063013316fa146101a157806301ffc9a7146101bd57806306fdde03146101fa578063081812fc14610225578063095ea7b31461026257806323b872dd1461028b575b600080fd5b6101bb60048036038101906101b69190612abb565b6106b3565b005b3480156101c957600080fd5b506101e460048036038101906101df9190612b5c565b610899565b6040516101f19190612ba4565b60405180910390f35b34801561020657600080fd5b5061020f61097b565b60405161021c9190612c3e565b60405180910390f35b34801561023157600080fd5b5061024c60048036038101906102479190612c96565b610a0d565b6040516102599190612d04565b60405180910390f35b34801561026e57600080fd5b5061028960048036038101906102849190612d4b565b610a29565b005b34801561029757600080fd5b506102b260048036038101906102ad9190612d8b565b610a3f565b005b3480156102c057600080fd5b506102db60048036038101906102d69190612c96565b610b41565b6040516102ec959493929190612e64565b60405180910390f35b34801561030157600080fd5b5061031c60048036038101906103179190612c96565b610c2c565b6040516103299190612fab565b60405180910390f35b34801561033e57600080fd5b5061035960048036038101906103549190612d8b565b610dfd565b005b34801561036757600080fd5b50610382600480360381019061037d9190612fcd565b610e1d565b60405161038f9190613066565b60405180910390f35b3480156103a457600080fd5b506103bf60048036038101906103ba9190612c96565b610fce565b6040516103cc9190612d04565b60405180910390f35b3480156103e157600080fd5b506103fc60048036038101906103f79190612abb565b610fe0565b6040516104099190613088565b60405180910390f35b34801561041e57600080fd5b50610439600480360381019061043491906130a3565b61100e565b6040516104469190613088565b60405180910390f35b34801561045b57600080fd5b506104646110c8565b6040516104719190613208565b60405180910390f35b34801561048657600080fd5b5061048f6112dc565b005b34801561049d57600080fd5b506104b860048036038101906104b39190612c96565b6112f0565b005b3480156104c657600080fd5b506104e160048036038101906104dc9190612c96565b611340565b005b6104fd60048036038101906104f8919061322a565b6113f8565b005b34801561050b57600080fd5b50610514611579565b6040516105219190612d04565b60405180910390f35b34801561053657600080fd5b5061053f6115a3565b60405161054c9190612c3e565b60405180910390f35b34801561056157600080fd5b5061056a611635565b6040516105779190613369565b60405180910390f35b34801561058c57600080fd5b506105a760048036038101906105a291906133b7565b611730565b005b3480156105b557600080fd5b506105d060048036038101906105cb9190612c96565b611746565b6040516105de9291906133f7565b60405180910390f35b3480156105f357600080fd5b5061060e600480360381019061060991906134c8565b611802565b005b34801561061c57600080fd5b5061063760048036038101906106329190612c96565b61181f565b6040516106449190612c3e565b60405180910390f35b34801561065957600080fd5b50610674600480360381019061066f919061354b565b611888565b6040516106819190612ba4565b60405180910390f35b34801561069657600080fd5b506106b160048036038101906106ac91906130a3565b61191c565b005b6008816040516106c391906135c7565b908152602001604051809103902054341461070a576040517f19a6bd0f00000000000000000000000000000000000000000000000000000000815260040160405180910390fd5b600060088260405161071c91906135c7565b90815260200160405180910390205403610762576040517fabb34a7c00000000000000000000000000000000000000000000000000000000815260040160405180910390fd5b60006040518060a001604052803373ffffffffffffffffffffffffffffffffffffffff168152602001838152602001600060028111156107a5576107a4612dde565b5b815260200142815260200160008152509050600a60008154809291906107ca9061360d565b91905055506107db33600a546119a2565b8060096000600a54815260200190815260200160002060008201518160000160006101000a81548173ffffffffffffffffffffffffffffffffffffffff021916908373ffffffffffffffffffffffffffffffffffffffff160217905550602082015181600101908161084d9190613861565b5060408201518160020160006101000a81548160ff0219169083600281111561087957610878612dde565b5b021790555060608201518160030155608082015181600401559050505050565b60007f80ac58cd000000000000000000000000000000000000000000000000000000007bffffffffffffffffffffffffffffffffffffffffffffffffffffffff1916827bffffffffffffffffffffffffffffffffffffffffffffffffffffffff1916148061096457507f5b5e139f000000000000000000000000000000000000000000000000000000007bffffffffffffffffffffffffffffffffffffffffffffffffffffffff1916827bffffffffffffffffffffffffffffffffffffffffffffffffffffffff1916145b806109745750610973826119c0565b5b9050919050565b60606000805461098a90613684565b80601f01602080910402602001604051908101604052809291908181526020018280546109b690613684565b8015610a035780601f106109d857610100808354040283529160200191610a03565b820191906000526020600020905b8154815290600101906020018083116109e657829003601f168201915b5050505050905090565b6000610a1882611a2a565b50610a2282611ab2565b9050919050565b610a3b8282610a36611aef565b611af7565b5050565b600073ffffffffffffffffffffffffffffffffffffffff168273ffffffffffffffffffffffffffffffffffffffff1603610ab15760006040517f64a0ae92000000000000000000000000000000000000000000000000000000008152600401610aa89190612d04565b60405180910390fd5b6000610ac58383610ac0611aef565b611b09565b90508373ffffffffffffffffffffffffffffffffffffffff168173ffffffffffffffffffffffffffffffffffffffff1614610b3b578382826040517f64283d7b000000000000000000000000000000000000000000000000000000008152600401610b3293929190613933565b60405180910390fd5b50505050565b60096020528060005260406000206000915090508060000160009054906101000a900473ffffffffffffffffffffffffffffffffffffffff1690806001018054610b8a90613684565b80601f0160208091040260200160405190810160405280929190818152602001828054610bb690613684565b8015610c035780601f10610bd857610100808354040283529160200191610c03565b820191906000526020600020905b815481529060010190602001808311610be657829003601f168201915b5050505050908060020160009054906101000a900460ff16908060030154908060040154905085565b610c346128f0565b610c3d82610fce565b73ffffffffffffffffffffffffffffffffffffffff163373ffffffffffffffffffffffffffffffffffffffff1614610ca1576040517f3d693ada00000000000000000000000000000000000000000000000000000000815260040160405180910390fd5b600960008381526020019081526020016000206040518060a00160405290816000820160009054906101000a900473ffffffffffffffffffffffffffffffffffffffff1673ffffffffffffffffffffffffffffffffffffffff1673ffffffffffffffffffffffffffffffffffffffff168152602001600182018054610d2590613684565b80601f0160208091040260200160405190810160405280929190818152602001828054610d5190613684565b8015610d9e5780601f10610d7357610100808354040283529160200191610d9e565b820191906000526020600020905b815481529060010190602001808311610d8157829003601f168201915b505050505081526020016002820160009054906101000a900460ff166002811115610dcc57610dcb612dde565b5b6002811115610dde57610ddd612dde565b5b8152602001600382015481526020016004820154815250509050919050565b610e1883838360405180602001604052806000815250611802565b505050565b610e25612947565b610e2d611d23565b60005b6007805490508160ff161015610eff5782604051602001610e5191906135c7565b6040516020818303038152906040528051906020012060078260ff1681548110610e7e57610e7d61396a565b5b9060005260206000209060020201600001604051602001610e9f9190613a1c565b6040516020818303038152906040528051906020012003610eec576040517f6fd2a58600000000000000000000000000000000000000000000000000000000815260040160405180910390fd5b8080610ef790613a40565b915050610e30565b5060008303610f3a576040517f2c669f0a00000000000000000000000000000000000000000000000000000000815260040160405180910390fd5b6000604051806040016040528084815260200185815250905060078190806001815401808255809150506001900390600052602060002090600202016000909190919091506000820151816000019081610f949190613861565b5060208201518160010155505083600884604051610fb291906135c7565b9081526020016040518091039020819055508091505092915050565b6000610fd982611a2a565b9050919050565b6008818051602081018201805184825260208301602085012081835280955050505050506000915090505481565b60008073ffffffffffffffffffffffffffffffffffffffff168273ffffffffffffffffffffffffffffffffffffffff16036110815760006040517f89c62b640000000000000000000000000000000000000000000000000000000081526004016110789190612d04565b60405180910390fd5b600360008373ffffffffffffffffffffffffffffffffffffffff1673ffffffffffffffffffffffffffffffffffffffff168152602001908152602001600020549050919050565b60606110d2611d23565b6000600a5467ffffffffffffffff8111156110f0576110ef612990565b5b60405190808252806020026020018201604052801561112957816020015b6111166128f0565b81526020019060019003908161110e5790505b50905060005b600a548160ff1610156112d4576009600060018361114d9190613a69565b60ff1681526020019081526020016000206040518060a00160405290816000820160009054906101000a900473ffffffffffffffffffffffffffffffffffffffff1673ffffffffffffffffffffffffffffffffffffffff1673ffffffffffffffffffffffffffffffffffffffff1681526020016001820180546111cf90613684565b80601f01602080910402602001604051908101604052809291908181526020018280546111fb90613684565b80156112485780601f1061121d57610100808354040283529160200191611248565b820191906000526020600020905b81548152906001019060200180831161122b57829003601f168201915b505050505081526020016002820160009054906101000a900460ff16600281111561127657611275612dde565b5b600281111561128857611287612dde565b5b815260200160038201548152602001600482015481525050828260ff16815181106112b6576112b561396a565b5b602002602001018190525080806112cc90613a40565b91505061112f565b508091505090565b6112e4611d23565b6112ee6000611daa565b565b6112f8611d23565b600060096000838152602001908152602001600020905060028160020160006101000a81548160ff0219169083600281111561133757611336612dde565b5b02179055505050565b61134981610fce565b73ffffffffffffffffffffffffffffffffffffffff163373ffffffffffffffffffffffffffffffffffffffff16146113ad576040517f3d693ada00000000000000000000000000000000000000000000000000000000815260040160405180910390fd5b6113b681611e70565b60016009600083815260200190815260200160002060020160006101000a81548160ff021916908360028111156113f0576113ef612dde565b5b021790555050565b61140182610fce565b73ffffffffffffffffffffffffffffffffffffffff163373ffffffffffffffffffffffffffffffffffffffff1614611465576040517f3d693ada00000000000000000000000000000000000000000000000000000000815260040160405180910390fd5b6000600960008481526020019081526020016000209050600081600101805461148d90613684565b80601f01602080910402602001604051908101604052809291908181526020018280546114b990613684565b80156115065780601f106114db57610100808354040283529160200191611506565b820191906000526020600020905b8154815290600101906020018083116114e957829003601f168201915b50505050509050600060088260405161151f91906135c7565b9081526020016040518091039020549050803414611569576040517f19a6bd0f00000000000000000000000000000000000000000000000000000000815260040160405180910390fd5b8383600401819055505050505050565b6000600660009054906101000a900473ffffffffffffffffffffffffffffffffffffffff16905090565b6060600180546115b290613684565b80601f01602080910402602001604051908101604052809291908181526020018280546115de90613684565b801561162b5780601f106116005761010080835404028352916020019161162b565b820191906000526020600020905b81548152906001019060200180831161160e57829003601f168201915b5050505050905090565b60606007805480602002602001604051908101604052809291908181526020016000905b82821015611727578382906000526020600020906002020160405180604001604052908160008201805461168c90613684565b80601f01602080910402602001604051908101604052809291908181526020018280546116b890613684565b80156117055780601f106116da57610100808354040283529160200191611705565b820191906000526020600020905b8154815290600101906020018083116116e857829003601f168201915b5050505050815260200160018201548152505081526020019060010190611659565b50505050905090565b61174261173b611aef565b8383611ef6565b5050565b6007818154811061175657600080fd5b906000526020600020906002020160009150905080600001805461177990613684565b80601f01602080910402602001604051908101604052809291908181526020018280546117a590613684565b80156117f25780601f106117c7576101008083540402835291602001916117f2565b820191906000526020600020905b8154815290600101906020018083116117d557829003601f168201915b5050505050908060010154905082565b61180d848484610a3f565b61181984848484612065565b50505050565b606061182a82611a2a565b50600061183561221c565b905060008151116118555760405180602001604052806000815250611880565b8061185f84612233565b604051602001611870929190613a9e565b6040516020818303038152906040525b915050919050565b6000600560008473ffffffffffffffffffffffffffffffffffffffff1673ffffffffffffffffffffffffffffffffffffffff16815260200190815260200160002060008373ffffffffffffffffffffffffffffffffffffffff1673ffffffffffffffffffffffffffffffffffffffff16815260200190815260200160002060009054906101000a900460ff16905092915050565b611924611d23565b600073ffffffffffffffffffffffffffffffffffffffff168173ffffffffffffffffffffffffffffffffffffffff16036119965760006040517f1e4fbdf700000000000000000000000000000000000000000000000000000000815260040161198d9190612d04565b60405180910390fd5b61199f81611daa565b50565b6119bc828260405180602001604052806000815250612301565b5050565b60007f01ffc9a7000000000000000000000000000000000000000000000000000000007bffffffffffffffffffffffffffffffffffffffffffffffffffffffff1916827bffffffffffffffffffffffffffffffffffffffffffffffffffffffff1916149050919050565b600080611a368361231d565b9050600073ffffffffffffffffffffffffffffffffffffffff168173ffffffffffffffffffffffffffffffffffffffff1603611aa957826040517f7e273289000000000000000000000000000000000000000000000000000000008152600401611aa09190613088565b60405180910390fd5b80915050919050565b60006004600083815260200190815260200160002060009054906101000a900473ffffffffffffffffffffffffffffffffffffffff169050919050565b600033905090565b611b04838383600161235a565b505050565b600080611b158461231d565b9050600073ffffffffffffffffffffffffffffffffffffffff168373ffffffffffffffffffffffffffffffffffffffff1614611b5757611b5681848661251f565b5b600073ffffffffffffffffffffffffffffffffffffffff168173ffffffffffffffffffffffffffffffffffffffff1614611be857611b9960008560008061235a565b6001600360008373ffffffffffffffffffffffffffffffffffffffff1673ffffffffffffffffffffffffffffffffffffffff168152602001908152602001600020600082825403925050819055505b600073ffffffffffffffffffffffffffffffffffffffff168573ffffffffffffffffffffffffffffffffffffffff1614611c6b576001600360008773ffffffffffffffffffffffffffffffffffffffff1673ffffffffffffffffffffffffffffffffffffffff168152602001908152602001600020600082825401925050819055505b846002600086815260200190815260200160002060006101000a81548173ffffffffffffffffffffffffffffffffffffffff021916908373ffffffffffffffffffffffffffffffffffffffff160217905550838573ffffffffffffffffffffffffffffffffffffffff168273ffffffffffffffffffffffffffffffffffffffff167fddf252ad1be2c89b69c2b068fc378daa952ba7f163c4a11628f55a4df523b3ef60405160405180910390a4809150509392505050565b611d2b611aef565b73ffffffffffffffffffffffffffffffffffffffff16611d49611579565b73ffffffffffffffffffffffffffffffffffffffff1614611da857611d6c611aef565b6040517f118cdaa7000000000000000000000000000000000000000000000000000000008152600401611d9f9190612d04565b60405180910390fd5b565b6000600660009054906101000a900473ffffffffffffffffffffffffffffffffffffffff16905081600660006101000a81548173ffffffffffffffffffffffffffffffffffffffff021916908373ffffffffffffffffffffffffffffffffffffffff1602179055508173ffffffffffffffffffffffffffffffffffffffff168173ffffffffffffffffffffffffffffffffffffffff167f8be0079c531659141344cd1fd0a4f28419497f9722a3daafe3b4186f6b6457e060405160405180910390a35050565b6000611e7f6000836000611b09565b9050600073ffffffffffffffffffffffffffffffffffffffff168173ffffffffffffffffffffffffffffffffffffffff1603611ef257816040517f7e273289000000000000000000000000000000000000000000000000000000008152600401611ee99190613088565b60405180910390fd5b5050565b600073ffffffffffffffffffffffffffffffffffffffff168273ffffffffffffffffffffffffffffffffffffffff1603611f6757816040517f5b08ba18000000000000000000000000000000000000000000000000000000008152600401611f5e9190612d04565b60405180910390fd5b80600560008573ffffffffffffffffffffffffffffffffffffffff1673ffffffffffffffffffffffffffffffffffffffff16815260200190815260200160002060008473ffffffffffffffffffffffffffffffffffffffff1673ffffffffffffffffffffffffffffffffffffffff16815260200190815260200160002060006101000a81548160ff0219169083151502179055508173ffffffffffffffffffffffffffffffffffffffff168373ffffffffffffffffffffffffffffffffffffffff167f17307eab39ab6107e8899845ad3d59bd9653f200f220920489ca2b5937696c31836040516120589190612ba4565b60405180910390a3505050565b60008373ffffffffffffffffffffffffffffffffffffffff163b1115612216578273ffffffffffffffffffffffffffffffffffffffff1663150b7a026120a9611aef565b8685856040518563ffffffff1660e01b81526004016120cb9493929190613b17565b6020604051808303816000875af192505050801561210757506040513d601f19601f820116820180604052508101906121049190613b78565b60015b61218b573d8060008114612137576040519150601f19603f3d011682016040523d82523d6000602084013e61213c565b606091505b50600081510361218357836040517f64a0ae9200000000000000000000000000000000000000000000000000000000815260040161217a9190612d04565b60405180910390fd5b805181602001fd5b63150b7a0260e01b7bffffffffffffffffffffffffffffffffffffffffffffffffffffffff1916817bffffffffffffffffffffffffffffffffffffffffffffffffffffffff19161461221457836040517f64a0ae9200000000000000000000000000000000000000000000000000000000815260040161220b9190612d04565b60405180910390fd5b505b50505050565b606060405180602001604052806000815250905090565b606060006001612242846125e3565b01905060008167ffffffffffffffff81111561226157612260612990565b5b6040519080825280601f01601f1916602001820160405280156122935781602001600182028036833780820191505090505b509050600082602001820190505b6001156122f6578080600190039150507f3031323334353637383961626364656600000000000000000000000000000000600a86061a8153600a85816122ea576122e9613ba5565b5b049450600085036122a1575b819350505050919050565b61230b8383612736565b6123186000848484612065565b505050565b60006002600083815260200190815260200160002060009054906101000a900473ffffffffffffffffffffffffffffffffffffffff169050919050565b80806123935750600073ffffffffffffffffffffffffffffffffffffffff168273ffffffffffffffffffffffffffffffffffffffff1614155b156124c75760006123a384611a2a565b9050600073ffffffffffffffffffffffffffffffffffffffff168373ffffffffffffffffffffffffffffffffffffffff161415801561240e57508273ffffffffffffffffffffffffffffffffffffffff168173ffffffffffffffffffffffffffffffffffffffff1614155b8015612421575061241f8184611888565b155b1561246357826040517fa9fbf51f00000000000000000000000000000000000000000000000000000000815260040161245a9190612d04565b60405180910390fd5b81156124c557838573ffffffffffffffffffffffffffffffffffffffff168273ffffffffffffffffffffffffffffffffffffffff167f8c5be1e5ebec7d5bd14f71427d1e84f3dd0314c0f7b2291e5b200ac8c7c3b92560405160405180910390a45b505b836004600085815260200190815260200160002060006101000a81548173ffffffffffffffffffffffffffffffffffffffff021916908373ffffffffffffffffffffffffffffffffffffffff16021790555050505050565b61252a83838361282f565b6125de57600073ffffffffffffffffffffffffffffffffffffffff168373ffffffffffffffffffffffffffffffffffffffff160361259f57806040517f7e2732890000000000000000000000000000000000000000000000000000000081526004016125969190613088565b60405180910390fd5b81816040517f177e802f0000000000000000000000000000000000000000000000000000000081526004016125d5929190613bd4565b60405180910390fd5b505050565b600080600090507a184f03e93ff9f4daa797ed6e38ed64bf6a1f0100000000000000008310612641577a184f03e93ff9f4daa797ed6e38ed64bf6a1f010000000000000000838161263757612636613ba5565b5b0492506040810190505b6d04ee2d6d415b85acef8100000000831061267e576d04ee2d6d415b85acef8100000000838161267457612673613ba5565b5b0492506020810190505b662386f26fc1000083106126ad57662386f26fc1000083816126a3576126a2613ba5565b5b0492506010810190505b6305f5e10083106126d6576305f5e10083816126cc576126cb613ba5565b5b0492506008810190505b61271083106126fb5761271083816126f1576126f0613ba5565b5b0492506004810190505b6064831061271e576064838161271457612713613ba5565b5b0492506002810190505b600a831061272d576001810190505b80915050919050565b600073ffffffffffffffffffffffffffffffffffffffff168273ffffffffffffffffffffffffffffffffffffffff16036127a85760006040517f64a0ae9200000000000000000000000000000000000000000000000000000000815260040161279f9190612d04565b60405180910390fd5b60006127b683836000611b09565b9050600073ffffffffffffffffffffffffffffffffffffffff168173ffffffffffffffffffffffffffffffffffffffff161461282a5760006040517f73c6ac6e0000000000000000000000000000000000000000000000000000000081526004016128219190612d04565b60405180910390fd5b505050565b60008073ffffffffffffffffffffffffffffffffffffffff168373ffffffffffffffffffffffffffffffffffffffff16141580156128e757508273ffffffffffffffffffffffffffffffffffffffff168473ffffffffffffffffffffffffffffffffffffffff1614806128a857506128a78484611888565b5b806128e657508273ffffffffffffffffffffffffffffffffffffffff166128ce83611ab2565b73ffffffffffffffffffffffffffffffffffffffff16145b5b90509392505050565b6040518060a00160405280600073ffffffffffffffffffffffffffffffffffffffff168152602001606081526020016000600281111561293357612932612dde565b5b815260200160008152602001600081525090565b604051806040016040528060608152602001600081525090565b6000604051905090565b600080fd5b600080fd5b600080fd5b600080fd5b6000601f19601f8301169050919050565b7f4e487b7100000000000000000000000000000000000000000000000000000000600052604160045260246000fd5b6129c88261297f565b810181811067ffffffffffffffff821117156129e7576129e6612990565b5b80604052505050565b60006129fa612961565b9050612a0682826129bf565b919050565b600067ffffffffffffffff821115612a2657612a25612990565b5b612a2f8261297f565b9050602081019050919050565b82818337600083830152505050565b6000612a5e612a5984612a0b565b6129f0565b905082815260208101848484011115612a7a57612a7961297a565b5b612a85848285612a3c565b509392505050565b600082601f830112612aa257612aa1612975565b5b8135612ab2848260208601612a4b565b91505092915050565b600060208284031215612ad157612ad061296b565b5b600082013567ffffffffffffffff811115612aef57612aee612970565b5b612afb84828501612a8d565b91505092915050565b60007fffffffff0000000000000000000000000000000000000000000000000000000082169050919050565b612b3981612b04565b8114612b4457600080fd5b50565b600081359050612b5681612b30565b92915050565b600060208284031215612b7257612b7161296b565b5b6000612b8084828501612b47565b91505092915050565b60008115159050919050565b612b9e81612b89565b82525050565b6000602082019050612bb96000830184612b95565b92915050565b600081519050919050565b600082825260208201905092915050565b60005b83811015612bf9578082015181840152602081019050612bde565b60008484015250505050565b6000612c1082612bbf565b612c1a8185612bca565b9350612c2a818560208601612bdb565b612c338161297f565b840191505092915050565b60006020820190508181036000830152612c588184612c05565b905092915050565b6000819050919050565b612c7381612c60565b8114612c7e57600080fd5b50565b600081359050612c9081612c6a565b92915050565b600060208284031215612cac57612cab61296b565b5b6000612cba84828501612c81565b91505092915050565b600073ffffffffffffffffffffffffffffffffffffffff82169050919050565b6000612cee82612cc3565b9050919050565b612cfe81612ce3565b82525050565b6000602082019050612d196000830184612cf5565b92915050565b612d2881612ce3565b8114612d3357600080fd5b50565b600081359050612d4581612d1f565b92915050565b60008060408385031215612d6257612d6161296b565b5b6000612d7085828601612d36565b9250506020612d8185828601612c81565b9150509250929050565b600080600060608486031215612da457612da361296b565b5b6000612db286828701612d36565b9350506020612dc386828701612d36565b9250506040612dd486828701612c81565b9150509250925092565b7f4e487b7100000000000000000000000000000000000000000000000000000000600052602160045260246000fd5b60038110612e1e57612e1d612dde565b5b50565b6000819050612e2f82612e0d565b919050565b6000612e3f82612e21565b9050919050565b612e4f81612e34565b82525050565b612e5e81612c60565b82525050565b600060a082019050612e796000830188612cf5565b8181036020830152612e8b8187612c05565b9050612e9a6040830186612e46565b612ea76060830185612e55565b612eb46080830184612e55565b9695505050505050565b612ec781612ce3565b82525050565b600082825260208201905092915050565b6000612ee982612bbf565b612ef38185612ecd565b9350612f03818560208601612bdb565b612f0c8161297f565b840191505092915050565b612f2081612e34565b82525050565b612f2f81612c60565b82525050565b600060a083016000830151612f4d6000860182612ebe565b5060208301518482036020860152612f658282612ede565b9150506040830151612f7a6040860182612f17565b506060830151612f8d6060860182612f26565b506080830151612fa06080860182612f26565b508091505092915050565b60006020820190508181036000830152612fc58184612f35565b905092915050565b60008060408385031215612fe457612fe361296b565b5b6000612ff285828601612c81565b925050602083013567ffffffffffffffff81111561301357613012612970565b5b61301f85828601612a8d565b9150509250929050565b600060408301600083015184820360008601526130468282612ede565b915050602083015161305b6020860182612f26565b508091505092915050565b600060208201905081810360008301526130808184613029565b905092915050565b600060208201905061309d6000830184612e55565b92915050565b6000602082840312156130b9576130b861296b565b5b60006130c784828501612d36565b91505092915050565b600081519050919050565b600082825260208201905092915050565b6000819050602082019050919050565b600060a0830160008301516131146000860182612ebe565b506020830151848203602086015261312c8282612ede565b91505060408301516131416040860182612f17565b5060608301516131546060860182612f26565b5060808301516131676080860182612f26565b508091505092915050565b600061317e83836130fc565b905092915050565b6000602082019050919050565b600061319e826130d0565b6131a881856130db565b9350836020820285016131ba856130ec565b8060005b858110156131f657848403895281516131d78582613172565b94506131e283613186565b925060208a019950506001810190506131be565b50829750879550505050505092915050565b600060208201905081810360008301526132228184613193565b905092915050565b600080604083850312156132415761324061296b565b5b600061324f85828601612c81565b925050602061326085828601612c81565b9150509250929050565b600081519050919050565b600082825260208201905092915050565b6000819050602082019050919050565b600060408301600083015184820360008601526132b38282612ede565b91505060208301516132c86020860182612f26565b508091505092915050565b60006132df8383613296565b905092915050565b6000602082019050919050565b60006132ff8261326a565b6133098185613275565b93508360208202850161331b85613286565b8060005b85811015613357578484038952815161333885826132d3565b9450613343836132e7565b925060208a0199505060018101905061331f565b50829750879550505050505092915050565b6000602082019050818103600083015261338381846132f4565b905092915050565b61339481612b89565b811461339f57600080fd5b50565b6000813590506133b18161338b565b92915050565b600080604083850312156133ce576133cd61296b565b5b60006133dc85828601612d36565b92505060206133ed858286016133a2565b9150509250929050565b600060408201905081810360008301526134118185612c05565b90506134206020830184612e55565b9392505050565b600067ffffffffffffffff82111561344257613441612990565b5b61344b8261297f565b9050602081019050919050565b600061346b61346684613427565b6129f0565b9050828152602081018484840111156134875761348661297a565b5b613492848285612a3c565b509392505050565b600082601f8301126134af576134ae612975565b5b81356134bf848260208601613458565b91505092915050565b600080600080608085870312156134e2576134e161296b565b5b60006134f087828801612d36565b945050602061350187828801612d36565b935050604061351287828801612c81565b925050606085013567ffffffffffffffff81111561353357613532612970565b5b61353f8782880161349a565b91505092959194509250565b600080604083850312156135625761356161296b565b5b600061357085828601612d36565b925050602061358185828601612d36565b9150509250929050565b600081905092915050565b60006135a182612bbf565b6135ab818561358b565b93506135bb818560208601612bdb565b80840191505092915050565b60006135d38284613596565b915081905092915050565b7f4e487b7100000000000000000000000000000000000000000000000000000000600052601160045260246000fd5b600061361882612c60565b91507fffffffffffffffffffffffffffffffffffffffffffffffffffffffffffffffff820361364a576136496135de565b5b600182019050919050565b7f4e487b7100000000000000000000000000000000000000000000000000000000600052602260045260246000fd5b6000600282049050600182168061369c57607f821691505b6020821081036136af576136ae613655565b5b50919050565b60008190508160005260206000209050919050565b60006020601f8301049050919050565b600082821b905092915050565b6000600883026137177fffffffffffffffffffffffffffffffffffffffffffffffffffffffffffffffff826136da565b61372186836136da565b95508019841693508086168417925050509392505050565b6000819050919050565b600061375e61375961375484612c60565b613739565b612c60565b9050919050565b6000819050919050565b61377883613743565b61378c61378482613765565b8484546136e7565b825550505050565b600090565b6137a1613794565b6137ac81848461376f565b505050565b5b818110156137d0576137c5600082613799565b6001810190506137b2565b5050565b601f821115613815576137e6816136b5565b6137ef846136ca565b810160208510156137fe578190505b61381261380a856136ca565b8301826137b1565b50505b505050565b600082821c905092915050565b60006138386000198460080261381a565b1980831691505092915050565b60006138518383613827565b9150826002028217905092915050565b61386a82612bbf565b67ffffffffffffffff81111561388357613882612990565b5b61388d8254613684565b6138988282856137d4565b600060209050601f8311600181146138cb57600084156138b9578287015190505b6138c38582613845565b86555061392b565b601f1984166138d9866136b5565b60005b82811015613901578489015182556001820191506020850194506020810190506138dc565b8683101561391e578489015161391a601f891682613827565b8355505b6001600288020188555050505b505050505050565b60006060820190506139486000830186612cf5565b6139556020830185612e55565b6139626040830184612cf5565b949350505050565b7f4e487b7100000000000000000000000000000000000000000000000000000000600052603260045260246000fd5b600081546139a681613684565b6139b0818661358b565b945060018216600081146139cb57600181146139e057613a13565b60ff1983168652811515820286019350613a13565b6139e9856136b5565b60005b83811015613a0b578154818901526001820191506020810190506139ec565b838801955050505b50505092915050565b6000613a288284613999565b915081905092915050565b600060ff82169050919050565b6000613a4b82613a33565b915060ff8203613a5e57613a5d6135de565b5b600182019050919050565b6000613a7482613a33565b9150613a7f83613a33565b9250828201905060ff811115613a9857613a976135de565b5b92915050565b6000613aaa8285613596565b9150613ab68284613596565b91508190509392505050565b600081519050919050565b600082825260208201905092915050565b6000613ae982613ac2565b613af38185613acd565b9350613b03818560208601612bdb565b613b0c8161297f565b840191505092915050565b6000608082019050613b2c6000830187612cf5565b613b396020830186612cf5565b613b466040830185612e55565b8181036060830152613b588184613ade565b905095945050505050565b600081519050613b7281612b30565b92915050565b600060208284031215613b8e57613b8d61296b565b5b6000613b9c84828501613b63565b91505092915050565b7f4e487b7100000000000000000000000000000000000000000000000000000000600052601260045260246000fd5b6000604082019050613be96000830185612cf5565b613bf66020830184612e55565b939250505056fea26469706673582212209d74f9aaf7a8beec454973d39334274d62d1b655f0b0fd5d0dea3b3bb072e9d564736f6c63430008140033",
  "devdoc": {
    "errors": {
      "ERC721IncorrectOwner(address,uint256,address)": [
        {
          "details": "Indicates an error related to the ownership over a particular token. Used in transfers.",
          "params": {
            "owner": "Address of the current owner of a token.",
            "sender": "Address whose tokens are being transferred.",
            "tokenId": "Identifier number of a token."
          }
        }
      ],
      "ERC721InsufficientApproval(address,uint256)": [
        {
          "details": "Indicates a failure with the `operator`s approval. Used in transfers.",
          "params": {
            "operator": "Address that may be allowed to operate on tokens without being their owner.",
            "tokenId": "Identifier number of a token."
          }
        }
      ],
      "ERC721InvalidApprover(address)": [
        {
          "details": "Indicates a failure with the `approver` of a token to be approved. Used in approvals.",
          "params": {
            "approver": "Address initiating an approval operation."
          }
        }
      ],
      "ERC721InvalidOperator(address)": [
        {
          "details": "Indicates a failure with the `operator` to be approved. Used in approvals.",
          "params": {
            "operator": "Address that may be allowed to operate on tokens without being their owner."
          }
        }
      ],
      "ERC721InvalidOwner(address)": [
        {
          "details": "Indicates that an address can't be an owner. For example, `address(0)` is a forbidden owner in EIP-20. Used in balance queries.",
          "params": {
            "owner": "Address of the current owner of a token."
          }
        }
      ],
      "ERC721InvalidReceiver(address)": [
        {
          "details": "Indicates a failure with the token `receiver`. Used in transfers.",
          "params": {
            "receiver": "Address to which tokens are being transferred."
          }
        }
      ],
      "ERC721InvalidSender(address)": [
        {
          "details": "Indicates a failure with the token `sender`. Used in transfers.",
          "params": {
            "sender": "Address whose tokens are being transferred."
          }
        }
      ],
      "ERC721NonexistentToken(uint256)": [
        {
          "details": "Indicates a `tokenId` whose `owner` is the zero address.",
          "params": {
            "tokenId": "Identifier number of a token."
          }
        }
      ],
      "OwnableInvalidOwner(address)": [
        {
          "details": "The owner is not a valid owner account. (eg. `address(0)`)"
        }
      ],
      "OwnableUnauthorizedAccount(address)": [
        {
          "details": "The caller account is not authorized to perform an operation."
        }
      ]
    },
    "events": {
      "Approval(address,address,uint256)": {
        "details": "Emitted when `owner` enables `approved` to manage the `tokenId` token."
      },
      "ApprovalForAll(address,address,bool)": {
        "details": "Emitted when `owner` enables or disables (`approved`) `operator` to manage all of its assets."
      },
      "Transfer(address,address,uint256)": {
        "details": "Emitted when `tokenId` token is transferred from `from` to `to`."
      }
    },
    "kind": "dev",
    "methods": {
      "approve(address,uint256)": {
        "details": "See {IERC721-approve}."
      },
      "balanceOf(address)": {
        "details": "See {IERC721-balanceOf}."
      },
      "getApproved(uint256)": {
        "details": "See {IERC721-getApproved}."
      },
      "isApprovedForAll(address,address)": {
        "details": "See {IERC721-isApprovedForAll}."
      },
      "name()": {
        "details": "See {IERC721Metadata-name}."
      },
      "owner()": {
        "details": "Returns the address of the current owner."
      },
      "ownerOf(uint256)": {
        "details": "See {IERC721-ownerOf}."
      },
      "renounceOwnership()": {
        "details": "Leaves the contract without owner. It will not be possible to call `onlyOwner` functions. Can only be called by the current owner. NOTE: Renouncing ownership will leave the contract without an owner, thereby disabling any functionality that is only available to the owner."
      },
      "safeTransferFrom(address,address,uint256)": {
        "details": "See {IERC721-safeTransferFrom}."
      },
      "safeTransferFrom(address,address,uint256,bytes)": {
        "details": "See {IERC721-safeTransferFrom}."
      },
      "setApprovalForAll(address,bool)": {
        "details": "See {IERC721-setApprovalForAll}."
      },
      "supportsInterface(bytes4)": {
        "details": "See {IERC165-supportsInterface}."
      },
      "symbol()": {
        "details": "See {IERC721Metadata-symbol}."
      },
      "tokenURI(uint256)": {
        "details": "See {IERC721Metadata-tokenURI}."
      },
      "transferFrom(address,address,uint256)": {
        "details": "See {IERC721-transferFrom}."
      },
      "transferOwnership(address)": {
        "details": "Transfers ownership of the contract to a new account (`newOwner`). Can only be called by the current owner."
      }
    },
    "version": 1
  },
  "userdoc": {
    "kind": "user",
    "methods": {},
    "version": 1
  },
  "storageLayout": {
    "storage": [
      {
        "astId": 317,
        "contract": "contracts/MemberMe.sol:MemberMe",
        "label": "_name",
        "offset": 0,
        "slot": "0",
        "type": "t_string_storage"
      },
      {
        "astId": 319,
        "contract": "contracts/MemberMe.sol:MemberMe",
        "label": "_symbol",
        "offset": 0,
        "slot": "1",
        "type": "t_string_storage"
      },
      {
        "astId": 323,
        "contract": "contracts/MemberMe.sol:MemberMe",
        "label": "_owners",
        "offset": 0,
        "slot": "2",
        "type": "t_mapping(t_uint256,t_address)"
      },
      {
        "astId": 327,
        "contract": "contracts/MemberMe.sol:MemberMe",
        "label": "_balances",
        "offset": 0,
        "slot": "3",
        "type": "t_mapping(t_address,t_uint256)"
      },
      {
        "astId": 331,
        "contract": "contracts/MemberMe.sol:MemberMe",
        "label": "_tokenApprovals",
        "offset": 0,
        "slot": "4",
        "type": "t_mapping(t_uint256,t_address)"
      },
      {
        "astId": 337,
        "contract": "contracts/MemberMe.sol:MemberMe",
        "label": "_operatorApprovals",
        "offset": 0,
        "slot": "5",
        "type": "t_mapping(t_address,t_mapping(t_address,t_bool))"
      },
      {
        "astId": 8,
        "contract": "contracts/MemberMe.sol:MemberMe",
        "label": "_owner",
        "offset": 0,
        "slot": "6",
        "type": "t_address"
      },
      {
        "astId": 2957,
        "contract": "contracts/MemberMe.sol:MemberMe",
        "label": "plans",
        "offset": 0,
        "slot": "7",
        "type": "t_array(t_struct(Plan)2953_storage)dyn_storage"
      },
      {
        "astId": 2961,
        "contract": "contracts/MemberMe.sol:MemberMe",
        "label": "planPrices",
        "offset": 0,
        "slot": "8",
        "type": "t_mapping(t_string_memory_ptr,t_uint256)"
      },
      {
        "astId": 2982,
        "contract": "contracts/MemberMe.sol:MemberMe",
        "label": "memberships",
        "offset": 0,
        "slot": "9",
        "type": "t_mapping(t_uint256,t_struct(Membership)2977_storage)"
      },
      {
        "astId": 2984,
        "contract": "contracts/MemberMe.sol:MemberMe",
        "label": "_tokenCounter",
        "offset": 0,
        "slot": "10",
        "type": "t_uint256"
      }
    ],
    "types": {
      "t_address": {
        "encoding": "inplace",
        "label": "address",
        "numberOfBytes": "20"
      },
      "t_array(t_struct(Plan)2953_storage)dyn_storage": {
        "base": "t_struct(Plan)2953_storage",
        "encoding": "dynamic_array",
        "label": "struct MemberMe.Plan[]",
        "numberOfBytes": "32"
      },
      "t_bool": {
        "encoding": "inplace",
        "label": "bool",
        "numberOfBytes": "1"
      },
      "t_enum(MembershipStatus)2965": {
        "encoding": "inplace",
        "label": "enum MemberMe.MembershipStatus",
        "numberOfBytes": "1"
      },
      "t_mapping(t_address,t_bool)": {
        "encoding": "mapping",
        "key": "t_address",
        "label": "mapping(address => bool)",
        "numberOfBytes": "32",
        "value": "t_bool"
      },
      "t_mapping(t_address,t_mapping(t_address,t_bool))": {
        "encoding": "mapping",
        "key": "t_address",
        "label": "mapping(address => mapping(address => bool))",
        "numberOfBytes": "32",
        "value": "t_mapping(t_address,t_bool)"
      },
      "t_mapping(t_address,t_uint256)": {
        "encoding": "mapping",
        "key": "t_address",
        "label": "mapping(address => uint256)",
        "numberOfBytes": "32",
        "value": "t_uint256"
      },
      "t_mapping(t_string_memory_ptr,t_uint256)": {
        "encoding": "mapping",
        "key": "t_string_memory_ptr",
        "label": "mapping(string => uint256)",
        "numberOfBytes": "32",
        "value": "t_uint256"
      },
      "t_mapping(t_uint256,t_address)": {
        "encoding": "mapping",
        "key": "t_uint256",
        "label": "mapping(uint256 => address)",
        "numberOfBytes": "32",
        "value": "t_address"
      },
      "t_mapping(t_uint256,t_struct(Membership)2977_storage)": {
        "encoding": "mapping",
        "key": "t_uint256",
        "label": "mapping(uint256 => struct MemberMe.Membership)",
        "numberOfBytes": "32",
        "value": "t_struct(Membership)2977_storage"
      },
      "t_string_memory_ptr": {
        "encoding": "bytes",
        "label": "string",
        "numberOfBytes": "32"
      },
      "t_string_storage": {
        "encoding": "bytes",
        "label": "string",
        "numberOfBytes": "32"
      },
      "t_struct(Membership)2977_storage": {
        "encoding": "inplace",
        "label": "struct MemberMe.Membership",
        "members": [
          {
            "astId": 2967,
            "contract": "contracts/MemberMe.sol:MemberMe",
            "label": "owner",
            "offset": 0,
            "slot": "0",
            "type": "t_address"
          },
          {
            "astId": 2969,
            "contract": "contracts/MemberMe.sol:MemberMe",
            "label": "planName",
            "offset": 0,
            "slot": "1",
            "type": "t_string_storage"
          },
          {
            "astId": 2972,
            "contract": "contracts/MemberMe.sol:MemberMe",
            "label": "status",
            "offset": 0,
            "slot": "2",
            "type": "t_enum(MembershipStatus)2965"
          },
          {
            "astId": 2974,
            "contract": "contracts/MemberMe.sol:MemberMe",
            "label": "createdAt",
            "offset": 0,
            "slot": "3",
            "type": "t_uint256"
          },
          {
            "astId": 2976,
            "contract": "contracts/MemberMe.sol:MemberMe",
            "label": "lastRenewedAt",
            "offset": 0,
            "slot": "4",
            "type": "t_uint256"
          }
        ],
        "numberOfBytes": "160"
      },
      "t_struct(Plan)2953_storage": {
        "encoding": "inplace",
        "label": "struct MemberMe.Plan",
        "members": [
          {
            "astId": 2950,
            "contract": "contracts/MemberMe.sol:MemberMe",
            "label": "name",
            "offset": 0,
            "slot": "0",
            "type": "t_string_storage"
          },
          {
            "astId": 2952,
            "contract": "contracts/MemberMe.sol:MemberMe",
            "label": "price",
            "offset": 0,
            "slot": "1",
            "type": "t_uint256"
          }
        ],
        "numberOfBytes": "64"
      },
      "t_uint256": {
        "encoding": "inplace",
        "label": "uint256",
        "numberOfBytes": "32"
      }
    }
  }
}