{
  "address": "0x5FbDB2315678afecb367f032d93F642f64180aa3",
  "abi": [
    {
      "anonymous": false,
      "inputs": [
        {
          "indexed": true,
          "internalType": "address",
          "name": "newContractAddress",
          "type": "address"
        }
      ],
      "name": "ContractCreated",
      "type": "event"
    },
    {
      "inputs": [
        {
          "internalType": "uint256",
          "name": "",
          "type": "uint256"
        }
      ],
      "name": "contractAddresses",
      "outputs": [
        {
          "internalType": "address",
          "name": "",
          "type": "address"
        }
      ],
      "stateMutability": "view",
      "type": "function"
    },
    {
      "inputs": [
        {
          "internalType": "string",
          "name": "_name",
          "type": "string"
        },
        {
          "internalType": "string",
          "name": "_symbol",
          "type": "string"
        }
      ],
      "name": "createContract",
      "outputs": [
        {
          "internalType": "address",
          "name": "",
          "type": "address"
        }
      ],
      "stateMutability": "nonpayable",
      "type": "function"
    },
    {
      "inputs": [],
      "name": "getContractAddresses",
      "outputs": [
        {
          "internalType": "address[]",
          "name": "",
          "type": "address[]"
        }
      ],
      "stateMutability": "view",
      "type": "function"
    }
  ],
  "transactionHash": "0xcdbb634f9a876e5979a08d086a21716fd42a4897c38a41870f8f4006282306f2",
  "args": [],
  "numDeployments": 1,
  "solcInputHash": "6f39fa25d46bc83cd1b63219db865832",
  "bytecode": "0x608060405234801561001057600080fd5b5061503b806100206000396000f3fe60806040523480156200001157600080fd5b5060043610620000465760003560e01c80633263b545146200004b578063631a42311462000081578063953874d214620000b7575b600080fd5b620000696004803603810190620000639190620002f8565b620000d9565b6040516200007891906200036f565b60405180910390f35b6200009f6004803603810190620000999190620004ee565b62000119565b604051620000ae91906200036f565b60405180910390f35b620000c16200020b565b604051620000d0919062000641565b60405180910390f35b60008181548110620000ea57600080fd5b906000526020600020016000915054906101000a900473ffffffffffffffffffffffffffffffffffffffff1681565b6000808383336040516200012d906200029b565b6200013b93929190620006ee565b604051809103906000f08015801562000158573d6000803e3d6000fd5b5090506000819080600181540180825580915050600190039060005260206000200160009091909190916101000a81548173ffffffffffffffffffffffffffffffffffffffff021916908373ffffffffffffffffffffffffffffffffffffffff1602179055508073ffffffffffffffffffffffffffffffffffffffff167fcf78cf0d6f3d8371e1075c69c492ab4ec5d8cf23a1a239b6a51a1d00be7ca31260405160405180910390a28091505092915050565b606060008054806020026020016040519081016040528092919081815260200182805480156200029157602002820191906000526020600020905b8160009054906101000a900473ffffffffffffffffffffffffffffffffffffffff1673ffffffffffffffffffffffffffffffffffffffff168152602001906001019080831162000246575b5050505050905090565b6148cc806200073a83390190565b6000604051905090565b600080fd5b600080fd5b6000819050919050565b620002d281620002bd565b8114620002de57600080fd5b50565b600081359050620002f281620002c7565b92915050565b600060208284031215620003115762000310620002b3565b5b60006200032184828501620002e1565b91505092915050565b600073ffffffffffffffffffffffffffffffffffffffff82169050919050565b600062000357826200032a565b9050919050565b62000369816200034a565b82525050565b60006020820190506200038660008301846200035e565b92915050565b600080fd5b600080fd5b6000601f19601f8301169050919050565b7f4e487b7100000000000000000000000000000000000000000000000000000000600052604160045260246000fd5b620003e18262000396565b810181811067ffffffffffffffff82111715620004035762000402620003a7565b5b80604052505050565b600062000418620002a9565b9050620004268282620003d6565b919050565b600067ffffffffffffffff821115620004495762000448620003a7565b5b620004548262000396565b9050602081019050919050565b82818337600083830152505050565b60006200048762000481846200042b565b6200040c565b905082815260208101848484011115620004a657620004a562000391565b5b620004b384828562000461565b509392505050565b600082601f830112620004d357620004d26200038c565b5b8135620004e584826020860162000470565b91505092915050565b60008060408385031215620005085762000507620002b3565b5b600083013567ffffffffffffffff811115620005295762000528620002b8565b5b6200053785828601620004bb565b925050602083013567ffffffffffffffff8111156200055b576200055a620002b8565b5b6200056985828601620004bb565b9150509250929050565b600081519050919050565b600082825260208201905092915050565b6000819050602082019050919050565b620005aa816200034a565b82525050565b6000620005be83836200059f565b60208301905092915050565b6000602082019050919050565b6000620005e48262000573565b620005f081856200057e565b9350620005fd836200058f565b8060005b8381101562000634578151620006188882620005b0565b97506200062583620005ca565b92505060018101905062000601565b5085935050505092915050565b600060208201905081810360008301526200065d8184620005d7565b905092915050565b600081519050919050565b600082825260208201905092915050565b60005b83811015620006a157808201518184015260208101905062000684565b60008484015250505050565b6000620006ba8262000665565b620006c6818562000670565b9350620006d881856020860162000681565b620006e38162000396565b840191505092915050565b600060608201905081810360008301526200070a8186620006ad565b90508181036020830152620007208185620006ad565b90506200073160408301846200035e565b94935050505056fe60806040523480156200001157600080fd5b50604051620048cc380380620048cc8339818101604052810190620000379190620003f7565b80838381600090816200004b9190620006dc565b5080600190816200005d9190620006dc565b505050600073ffffffffffffffffffffffffffffffffffffffff168173ffffffffffffffffffffffffffffffffffffffff1603620000d55760006040517f1e4fbdf7000000000000000000000000000000000000000000000000000000008152600401620000cc9190620007d4565b60405180910390fd5b620000e6816200013960201b60201c565b5080600d60006101000a81548173ffffffffffffffffffffffffffffffffffffffff021916908373ffffffffffffffffffffffffffffffffffffffff1602179055506000600c81905550505050620007f1565b6000600760009054906101000a900473ffffffffffffffffffffffffffffffffffffffff16905081600760006101000a81548173ffffffffffffffffffffffffffffffffffffffff021916908373ffffffffffffffffffffffffffffffffffffffff1602179055508173ffffffffffffffffffffffffffffffffffffffff168173ffffffffffffffffffffffffffffffffffffffff167f8be0079c531659141344cd1fd0a4f28419497f9722a3daafe3b4186f6b6457e060405160405180910390a35050565b6000604051905090565b600080fd5b600080fd5b600080fd5b600080fd5b6000601f19601f8301169050919050565b7f4e487b7100000000000000000000000000000000000000000000000000000000600052604160045260246000fd5b62000268826200021d565b810181811067ffffffffffffffff821117156200028a57620002896200022e565b5b80604052505050565b60006200029f620001ff565b9050620002ad82826200025d565b919050565b600067ffffffffffffffff821115620002d057620002cf6200022e565b5b620002db826200021d565b9050602081019050919050565b60005b8381101562000308578082015181840152602081019050620002eb565b60008484015250505050565b60006200032b6200032584620002b2565b62000293565b9050828152602081018484840111156200034a576200034962000218565b5b62000357848285620002e8565b509392505050565b600082601f83011262000377576200037662000213565b5b81516200038984826020860162000314565b91505092915050565b600073ffffffffffffffffffffffffffffffffffffffff82169050919050565b6000620003bf8262000392565b9050919050565b620003d181620003b2565b8114620003dd57600080fd5b50565b600081519050620003f181620003c6565b92915050565b60008060006060848603121562000413576200041262000209565b5b600084015167ffffffffffffffff8111156200043457620004336200020e565b5b62000442868287016200035f565b935050602084015167ffffffffffffffff8111156200046657620004656200020e565b5b62000474868287016200035f565b92505060406200048786828701620003e0565b9150509250925092565b600081519050919050565b7f4e487b7100000000000000000000000000000000000000000000000000000000600052602260045260246000fd5b60006002820490506001821680620004e457607f821691505b602082108103620004fa57620004f96200049c565b5b50919050565b60008190508160005260206000209050919050565b60006020601f8301049050919050565b600082821b905092915050565b600060088302620005647fffffffffffffffffffffffffffffffffffffffffffffffffffffffffffffffff8262000525565b62000570868362000525565b95508019841693508086168417925050509392505050565b6000819050919050565b6000819050919050565b6000620005bd620005b7620005b18462000588565b62000592565b62000588565b9050919050565b6000819050919050565b620005d9836200059c565b620005f1620005e882620005c4565b84845462000532565b825550505050565b600090565b62000608620005f9565b62000615818484620005ce565b505050565b5b818110156200063d5762000631600082620005fe565b6001810190506200061b565b5050565b601f8211156200068c57620006568162000500565b620006618462000515565b8101602085101562000671578190505b62000689620006808562000515565b8301826200061a565b50505b505050565b600082821c905092915050565b6000620006b16000198460080262000691565b1980831691505092915050565b6000620006cc83836200069e565b9150826002028217905092915050565b620006e78262000491565b67ffffffffffffffff8111156200070357620007026200022e565b5b6200070f8254620004cb565b6200071c82828562000641565b600060209050601f8311600181146200075457600084156200073f578287015190505b6200074b8582620006be565b865550620007bb565b601f198416620007648662000500565b60005b828110156200078e5784890151825560018201915060208501945060208101905062000767565b86831015620007ae5784890151620007aa601f8916826200069e565b8355505b6001600288020188555050505b505050505050565b620007ce81620003b2565b82525050565b6000602082019050620007eb6000830184620007c3565b92915050565b6140cb80620008016000396000f3fe6080604052600436106101665760003560e01c8063715018a6116100d157806398de396a1161008a578063b88d4fde11610064578063b88d4fde1461050e578063c87b56dd14610537578063e985e9c514610574578063f2fde38b146105b157610166565b806398de396a1461048f578063a22cb465146104ba578063abb88bcc146104e357610166565b8063715018a6146103b457806381e168c2146103cb57806389def320146103f45780638c99f69a1461041d5780638da5cb5b1461043957806395d89b411461046457610166565b806342842e0e1161012357806342842e0e1461027e5780634e4f4912146102a75780636352211e146102e45780636e9960c31461032157806370a082311461034c578063714e71311461038957610166565b806301ffc9a71461016b57806306fdde03146101a8578063081812fc146101d3578063095ea7b3146102105780630d78d0c11461023957806323b872dd14610255575b600080fd5b34801561017757600080fd5b50610192600480360381019061018d9190612e68565b6105da565b60405161019f9190612eb0565b60405180910390f35b3480156101b457600080fd5b506101bd61063b565b6040516101ca9190612f5b565b60405180910390f35b3480156101df57600080fd5b506101fa60048036038101906101f59190612fb3565b6106cd565b6040516102079190613021565b60405180910390f35b34801561021c57600080fd5b5061023760048036038101906102329190613068565b6106e9565b005b610253600480360381019061024e9190612fb3565b6106ff565b005b34801561026157600080fd5b5061027c600480360381019061027791906130a8565b610b24565b005b34801561028a57600080fd5b506102a560048036038101906102a091906130a8565b610c26565b005b3480156102b357600080fd5b506102ce60048036038101906102c99190613230565b610c46565b6040516102db919061337e565b60405180910390f35b3480156102f057600080fd5b5061030b60048036038101906103069190612fb3565b610e6f565b6040516103189190613021565b60405180910390f35b34801561032d57600080fd5b50610336610e81565b6040516103439190613021565b60405180910390f35b34801561035857600080fd5b50610373600480360381019061036e91906133a0565b610eab565b60405161038091906133dc565b60405180910390f35b34801561039557600080fd5b5061039e610f65565b6040516103ab91906135a7565b60405180910390f35b3480156103c057600080fd5b506103c96110fb565b005b3480156103d757600080fd5b506103f260048036038101906103ed9190612fb3565b61110f565b005b34801561040057600080fd5b5061041b60048036038101906104169190612fb3565b6111d0565b005b610437600480360381019061043291906135c9565b6112f3565b005b34801561044557600080fd5b5061044e611492565b60405161045b9190613021565b60405180910390f35b34801561047057600080fd5b506104796114bc565b6040516104869190612f5b565b60405180910390f35b34801561049b57600080fd5b506104a461154e565b6040516104b19190613735565b60405180910390f35b3480156104c657600080fd5b506104e160048036038101906104dc9190613783565b6116e5565b005b3480156104ef57600080fd5b506104f86116fb565b6040516105059190613840565b60405180910390f35b34801561051a57600080fd5b5061053560048036038101906105309190613903565b6119e0565b005b34801561054357600080fd5b5061055e60048036038101906105599190612fb3565b6119fd565b60405161056b9190612f5b565b60405180910390f35b34801561058057600080fd5b5061059b60048036038101906105969190613986565b611b10565b6040516105a89190612eb0565b60405180910390f35b3480156105bd57600080fd5b506105d860048036038101906105d391906133a0565b611ba4565b005b6000634906490660e01b7bffffffffffffffffffffffffffffffffffffffffffffffffffffffff1916827bffffffffffffffffffffffffffffffffffffffffffffffffffffffff19161480610634575061063382611c2a565b5b9050919050565b60606000805461064a906139f5565b80601f0160208091040260200160405190810160405280929190818152602001828054610676906139f5565b80156106c35780601f10610698576101008083540402835291602001916106c3565b820191906000526020600020905b8154815290600101906020018083116106a657829003601f168201915b5050505050905090565b60006106d882611d0c565b506106e282611d94565b9050919050565b6106fb82826106f6611dd1565b611dd9565b5050565b60088054905081111561074857806040517e57d07700000000000000000000000000000000000000000000000000000000815260040161073f91906133dc565b60405180910390fd5b600060096000838152602001908152602001600020604051806080016040529081600082015481526020016001820154815260200160028201805461078c906139f5565b80601f01602080910402602001604051908101604052809291908181526020018280546107b8906139f5565b80156108055780601f106107da57610100808354040283529160200191610805565b820191906000526020600020905b8154815290600101906020018083116107e857829003601f168201915b5050505050815260200160038201805461081e906139f5565b80601f016020809104026020016040519081016040528092919081815260200182805461084a906139f5565b80156108975780601f1061086c57610100808354040283529160200191610897565b820191906000526020600020905b81548152906001019060200180831161087a57829003601f168201915b5050505050815250509050806020015134146108f0573481602001516040517f453e8e9e0000000000000000000000000000000000000000000000000000000081526004016108e7929190613a26565b60405180910390fd5b600c600081548092919061090390613a7e565b919050555061091433600c54611deb565b610924600c548260600151611e09565b60006040518060c001604052803373ffffffffffffffffffffffffffffffffffffffff1681526020016000600281111561096157610960613432565b5b815260200183600001518152602001600c5481526020014281526020016000815250905080600a6000600c54815260200190815260200160002060008201518160000160006101000a81548173ffffffffffffffffffffffffffffffffffffffff021916908373ffffffffffffffffffffffffffffffffffffffff16021790555060208201518160000160146101000a81548160ff02191690836002811115610a0d57610a0c613432565b5b021790555060408201518160010155606082015181600201556080820151816003015560a0820151816004015590505080600b60003373ffffffffffffffffffffffffffffffffffffffff1673ffffffffffffffffffffffffffffffffffffffff16815260200190815260200160002060008201518160000160006101000a81548173ffffffffffffffffffffffffffffffffffffffff021916908373ffffffffffffffffffffffffffffffffffffffff16021790555060208201518160000160146101000a81548160ff02191690836002811115610aef57610aee613432565b5b021790555060408201518160010155606082015181600201556080820151816003015560a08201518160040155905050505050565b600073ffffffffffffffffffffffffffffffffffffffff168273ffffffffffffffffffffffffffffffffffffffff1603610b965760006040517f64a0ae92000000000000000000000000000000000000000000000000000000008152600401610b8d9190613021565b60405180910390fd5b6000610baa8383610ba5611dd1565b611e65565b90508373ffffffffffffffffffffffffffffffffffffffff168173ffffffffffffffffffffffffffffffffffffffff1614610c20578382826040517f64283d7b000000000000000000000000000000000000000000000000000000008152600401610c1793929190613ac6565b60405180910390fd5b50505050565b610c41838383604051806020016040528060008152506119e0565b505050565b610c4e612d1f565b610c5661207f565b60005b6008805490508160ff161015610d285784604051602001610c7a9190613b39565b6040516020818303038152906040528051906020012060088260ff1681548110610ca757610ca6613b50565b5b9060005260206000209060040201600201604051602001610cc89190613c17565b6040516020818303038152906040528051906020012003610d15576040517f6fd2a58600000000000000000000000000000000000000000000000000000000815260040160405180910390fd5b8080610d2090613c3b565b915050610c59565b5060008203610d63576040517f2c669f0a00000000000000000000000000000000000000000000000000000000815260040160405180910390fd5b60006001600880549050610d779190613c64565b905060006040518060800160405280838152602001858152602001878152602001868152509050600881908060018154018082558091505060019003906000526020600020906004020160009091909190915060008201518160000155602082015181600101556040820151816002019081610df39190613e2f565b506060820151816003019081610e099190613e2f565b505050806009600084815260200190815260200160002060008201518160000155602082015181600101556040820151816002019081610e499190613e2f565b506060820151816003019081610e5f9190613e2f565b5090505080925050509392505050565b6000610e7a82611d0c565b9050919050565b6000600d60009054906101000a900473ffffffffffffffffffffffffffffffffffffffff16905090565b60008073ffffffffffffffffffffffffffffffffffffffff168273ffffffffffffffffffffffffffffffffffffffff1603610f1e5760006040517f89c62b64000000000000000000000000000000000000000000000000000000008152600401610f159190613021565b60405180910390fd5b600360008373ffffffffffffffffffffffffffffffffffffffff1673ffffffffffffffffffffffffffffffffffffffff168152602001908152602001600020549050919050565b6060610f6f61207f565b6000600c5467ffffffffffffffff811115610f8d57610f8c613105565b5b604051908082528060200260200182016040528015610fc657816020015b610fb3612d47565b815260200190600190039081610fab5790505b50905060005b600c548160ff1610156110f357600a6000600183610fea9190613f01565b60ff1681526020019081526020016000206040518060c00160405290816000820160009054906101000a900473ffffffffffffffffffffffffffffffffffffffff1673ffffffffffffffffffffffffffffffffffffffff1673ffffffffffffffffffffffffffffffffffffffff1681526020016000820160149054906101000a900460ff16600281111561108157611080613432565b5b600281111561109357611092613432565b5b8152602001600182015481526020016002820154815260200160038201548152602001600482015481525050828260ff16815181106110d5576110d4613b50565b5b602002602001018190525080806110eb90613c3b565b915050610fcc565b508091505090565b61110361207f565b61110d6000612106565b565b61111761207f565b6000600a600083815260200190815260200160002090506000600b60003373ffffffffffffffffffffffffffffffffffffffff1673ffffffffffffffffffffffffffffffffffffffff168152602001908152602001600020905060028260000160146101000a81548160ff0219169083600281111561119957611198613432565b5b021790555060028160000160146101000a81548160ff021916908360028111156111c6576111c5613432565b5b0217905550505050565b6111d981610e6f565b73ffffffffffffffffffffffffffffffffffffffff163373ffffffffffffffffffffffffffffffffffffffff161461123d576040517f3d693ada00000000000000000000000000000000000000000000000000000000815260040160405180910390fd5b611246816121cc565b6001600a600083815260200190815260200160002060000160146101000a81548160ff021916908360028111156112805761127f613432565b5b02179055506001600b60003373ffffffffffffffffffffffffffffffffffffffff1673ffffffffffffffffffffffffffffffffffffffff16815260200190815260200160002060000160146101000a81548160ff021916908360028111156112eb576112ea613432565b5b021790555050565b6112fc82610e6f565b73ffffffffffffffffffffffffffffffffffffffff163373ffffffffffffffffffffffffffffffffffffffff1614611360576040517f3d693ada00000000000000000000000000000000000000000000000000000000815260040160405180910390fd5b6000600a600084815260200190815260200160002090506000600b60003373ffffffffffffffffffffffffffffffffffffffff1673ffffffffffffffffffffffffffffffffffffffff16815260200190815260200160002090506000600960008460010154815260200190815260200160002060010154905080341461141f5734816040517f453e8e9e000000000000000000000000000000000000000000000000000000008152600401611416929190613a26565b60405180910390fd5b83836004018190555060008360000160146101000a81548160ff021916908360028111156114505761144f613432565b5b021790555083826004018190555060008260000160146101000a81548160ff0219169083600281111561148657611485613432565b5b02179055505050505050565b6000600760009054906101000a900473ffffffffffffffffffffffffffffffffffffffff16905090565b6060600180546114cb906139f5565b80601f01602080910402602001604051908101604052809291908181526020018280546114f7906139f5565b80156115445780601f1061151957610100808354040283529160200191611544565b820191906000526020600020905b81548152906001019060200180831161152757829003601f168201915b5050505050905090565b60606008805480602002602001604051908101604052809291908181526020016000905b828210156116dc578382906000526020600020906004020160405180608001604052908160008201548152602001600182015481526020016002820180546115b9906139f5565b80601f01602080910402602001604051908101604052809291908181526020018280546115e5906139f5565b80156116325780601f1061160757610100808354040283529160200191611632565b820191906000526020600020905b81548152906001019060200180831161161557829003601f168201915b5050505050815260200160038201805461164b906139f5565b80601f0160208091040260200160405190810160405280929190818152602001828054611677906139f5565b80156116c45780601f10611699576101008083540402835291602001916116c4565b820191906000526020600020905b8154815290600101906020018083116116a757829003601f168201915b50505050508152505081526020019060010190611572565b50505050905090565b6116f76116f0611dd1565b8383612252565b5050565b611703612da5565b6000600b60003373ffffffffffffffffffffffffffffffffffffffff1673ffffffffffffffffffffffffffffffffffffffff1681526020019081526020016000206040518060c00160405290816000820160009054906101000a900473ffffffffffffffffffffffffffffffffffffffff1673ffffffffffffffffffffffffffffffffffffffff1673ffffffffffffffffffffffffffffffffffffffff1681526020016000820160149054906101000a900460ff1660028111156117ca576117c9613432565b5b60028111156117dc576117db613432565b5b81526020016001820154815260200160028201548152602001600382015481526020016004820154815250509050600060096000836040015181526020019081526020016000206040518060800160405290816000820154815260200160018201548152602001600282018054611852906139f5565b80601f016020809104026020016040519081016040528092919081815260200182805461187e906139f5565b80156118cb5780601f106118a0576101008083540402835291602001916118cb565b820191906000526020600020905b8154815290600101906020018083116118ae57829003601f168201915b505050505081526020016003820180546118e4906139f5565b80601f0160208091040260200160405190810160405280929190818152602001828054611910906139f5565b801561195d5780601f106119325761010080835404028352916020019161195d565b820191906000526020600020905b81548152906001019060200180831161194057829003601f168201915b505050505081525050905060006040518060a00160405280846000015173ffffffffffffffffffffffffffffffffffffffff168152602001846020015160028111156119ac576119ab613432565b5b8152602001846060015181526020016119c885606001516119fd565b81526020018360400151815250905080935050505090565b6119eb848484610b24565b6119f7848484846123c1565b50505050565b6060611a0882611d0c565b506000600660008481526020019081526020016000208054611a29906139f5565b80601f0160208091040260200160405190810160405280929190818152602001828054611a55906139f5565b8015611aa25780601f10611a7757610100808354040283529160200191611aa2565b820191906000526020600020905b815481529060010190602001808311611a8557829003601f168201915b505050505090506000611ab3612578565b90506000815103611ac8578192505050611b0b565b600082511115611afd578082604051602001611ae5929190613f36565b60405160208183030381529060405292505050611b0b565b611b068461258f565b925050505b919050565b6000600560008473ffffffffffffffffffffffffffffffffffffffff1673ffffffffffffffffffffffffffffffffffffffff16815260200190815260200160002060008373ffffffffffffffffffffffffffffffffffffffff1673ffffffffffffffffffffffffffffffffffffffff16815260200190815260200160002060009054906101000a900460ff16905092915050565b611bac61207f565b600073ffffffffffffffffffffffffffffffffffffffff168173ffffffffffffffffffffffffffffffffffffffff1603611c1e5760006040517f1e4fbdf7000000000000000000000000000000000000000000000000000000008152600401611c159190613021565b60405180910390fd5b611c2781612106565b50565b60007f80ac58cd000000000000000000000000000000000000000000000000000000007bffffffffffffffffffffffffffffffffffffffffffffffffffffffff1916827bffffffffffffffffffffffffffffffffffffffffffffffffffffffff19161480611cf557507f5b5e139f000000000000000000000000000000000000000000000000000000007bffffffffffffffffffffffffffffffffffffffffffffffffffffffff1916827bffffffffffffffffffffffffffffffffffffffffffffffffffffffff1916145b80611d055750611d04826125f8565b5b9050919050565b600080611d1883612662565b9050600073ffffffffffffffffffffffffffffffffffffffff168173ffffffffffffffffffffffffffffffffffffffff1603611d8b57826040517f7e273289000000000000000000000000000000000000000000000000000000008152600401611d8291906133dc565b60405180910390fd5b80915050919050565b60006004600083815260200190815260200160002060009054906101000a900473ffffffffffffffffffffffffffffffffffffffff169050919050565b600033905090565b611de6838383600161269f565b505050565b611e05828260405180602001604052806000815250612864565b5050565b80600660008481526020019081526020016000209081611e299190613e2f565b507ff8e1a15aba9398e019f0b49df1a4fde98ee17ae345cb5f6b5e2c27f5033e8ce782604051611e5991906133dc565b60405180910390a15050565b600080611e7184612662565b9050600073ffffffffffffffffffffffffffffffffffffffff168373ffffffffffffffffffffffffffffffffffffffff1614611eb357611eb2818486612880565b5b600073ffffffffffffffffffffffffffffffffffffffff168173ffffffffffffffffffffffffffffffffffffffff1614611f4457611ef560008560008061269f565b6001600360008373ffffffffffffffffffffffffffffffffffffffff1673ffffffffffffffffffffffffffffffffffffffff168152602001908152602001600020600082825403925050819055505b600073ffffffffffffffffffffffffffffffffffffffff168573ffffffffffffffffffffffffffffffffffffffff1614611fc7576001600360008773ffffffffffffffffffffffffffffffffffffffff1673ffffffffffffffffffffffffffffffffffffffff168152602001908152602001600020600082825401925050819055505b846002600086815260200190815260200160002060006101000a81548173ffffffffffffffffffffffffffffffffffffffff021916908373ffffffffffffffffffffffffffffffffffffffff160217905550838573ffffffffffffffffffffffffffffffffffffffff168273ffffffffffffffffffffffffffffffffffffffff167fddf252ad1be2c89b69c2b068fc378daa952ba7f163c4a11628f55a4df523b3ef60405160405180910390a4809150509392505050565b612087611dd1565b73ffffffffffffffffffffffffffffffffffffffff166120a5611492565b73ffffffffffffffffffffffffffffffffffffffff1614612104576120c8611dd1565b6040517f118cdaa70000000000000000000000000000000000000000000000000000000081526004016120fb9190613021565b60405180910390fd5b565b6000600760009054906101000a900473ffffffffffffffffffffffffffffffffffffffff16905081600760006101000a81548173ffffffffffffffffffffffffffffffffffffffff021916908373ffffffffffffffffffffffffffffffffffffffff1602179055508173ffffffffffffffffffffffffffffffffffffffff168173ffffffffffffffffffffffffffffffffffffffff167f8be0079c531659141344cd1fd0a4f28419497f9722a3daafe3b4186f6b6457e060405160405180910390a35050565b60006121db6000836000611e65565b9050600073ffffffffffffffffffffffffffffffffffffffff168173ffffffffffffffffffffffffffffffffffffffff160361224e57816040517f7e27328900000000000000000000000000000000000000000000000000000000815260040161224591906133dc565b60405180910390fd5b5050565b600073ffffffffffffffffffffffffffffffffffffffff168273ffffffffffffffffffffffffffffffffffffffff16036122c357816040517f5b08ba180000000000000000000000000000000000000000000000000000000081526004016122ba9190613021565b60405180910390fd5b80600560008573ffffffffffffffffffffffffffffffffffffffff1673ffffffffffffffffffffffffffffffffffffffff16815260200190815260200160002060008473ffffffffffffffffffffffffffffffffffffffff1673ffffffffffffffffffffffffffffffffffffffff16815260200190815260200160002060006101000a81548160ff0219169083151502179055508173ffffffffffffffffffffffffffffffffffffffff168373ffffffffffffffffffffffffffffffffffffffff167f17307eab39ab6107e8899845ad3d59bd9653f200f220920489ca2b5937696c31836040516123b49190612eb0565b60405180910390a3505050565b60008373ffffffffffffffffffffffffffffffffffffffff163b1115612572578273ffffffffffffffffffffffffffffffffffffffff1663150b7a02612405611dd1565b8685856040518563ffffffff1660e01b81526004016124279493929190613faf565b6020604051808303816000875af192505050801561246357506040513d601f19601f820116820180604052508101906124609190614010565b60015b6124e7573d8060008114612493576040519150601f19603f3d011682016040523d82523d6000602084013e612498565b606091505b5060008151036124df57836040517f64a0ae920000000000000000000000000000000000000000000000000000000081526004016124d69190613021565b60405180910390fd5b805181602001fd5b63150b7a0260e01b7bffffffffffffffffffffffffffffffffffffffffffffffffffffffff1916817bffffffffffffffffffffffffffffffffffffffffffffffffffffffff19161461257057836040517f64a0ae920000000000000000000000000000000000000000000000000000000081526004016125679190613021565b60405180910390fd5b505b50505050565b606060405180602001604052806000815250905090565b606061259a82611d0c565b5060006125a5612578565b905060008151116125c557604051806020016040528060008152506125f0565b806125cf84612944565b6040516020016125e0929190613f36565b6040516020818303038152906040525b915050919050565b60007f01ffc9a7000000000000000000000000000000000000000000000000000000007bffffffffffffffffffffffffffffffffffffffffffffffffffffffff1916827bffffffffffffffffffffffffffffffffffffffffffffffffffffffff1916149050919050565b60006002600083815260200190815260200160002060009054906101000a900473ffffffffffffffffffffffffffffffffffffffff169050919050565b80806126d85750600073ffffffffffffffffffffffffffffffffffffffff168273ffffffffffffffffffffffffffffffffffffffff1614155b1561280c5760006126e884611d0c565b9050600073ffffffffffffffffffffffffffffffffffffffff168373ffffffffffffffffffffffffffffffffffffffff161415801561275357508273ffffffffffffffffffffffffffffffffffffffff168173ffffffffffffffffffffffffffffffffffffffff1614155b801561276657506127648184611b10565b155b156127a857826040517fa9fbf51f00000000000000000000000000000000000000000000000000000000815260040161279f9190613021565b60405180910390fd5b811561280a57838573ffffffffffffffffffffffffffffffffffffffff168273ffffffffffffffffffffffffffffffffffffffff167f8c5be1e5ebec7d5bd14f71427d1e84f3dd0314c0f7b2291e5b200ac8c7c3b92560405160405180910390a45b505b836004600085815260200190815260200160002060006101000a81548173ffffffffffffffffffffffffffffffffffffffff021916908373ffffffffffffffffffffffffffffffffffffffff16021790555050505050565b61286e8383612a12565b61287b60008484846123c1565b505050565b61288b838383612b0b565b61293f57600073ffffffffffffffffffffffffffffffffffffffff168373ffffffffffffffffffffffffffffffffffffffff160361290057806040517f7e2732890000000000000000000000000000000000000000000000000000000081526004016128f791906133dc565b60405180910390fd5b81816040517f177e802f00000000000000000000000000000000000000000000000000000000815260040161293692919061403d565b60405180910390fd5b505050565b60606000600161295384612bcc565b01905060008167ffffffffffffffff81111561297257612971613105565b5b6040519080825280601f01601f1916602001820160405280156129a45781602001600182028036833780820191505090505b509050600082602001820190505b600115612a07578080600190039150507f3031323334353637383961626364656600000000000000000000000000000000600a86061a8153600a85816129fb576129fa614066565b5b049450600085036129b2575b819350505050919050565b600073ffffffffffffffffffffffffffffffffffffffff168273ffffffffffffffffffffffffffffffffffffffff1603612a845760006040517f64a0ae92000000000000000000000000000000000000000000000000000000008152600401612a7b9190613021565b60405180910390fd5b6000612a9283836000611e65565b9050600073ffffffffffffffffffffffffffffffffffffffff168173ffffffffffffffffffffffffffffffffffffffff1614612b065760006040517f73c6ac6e000000000000000000000000000000000000000000000000000000008152600401612afd9190613021565b60405180910390fd5b505050565b60008073ffffffffffffffffffffffffffffffffffffffff168373ffffffffffffffffffffffffffffffffffffffff1614158015612bc357508273ffffffffffffffffffffffffffffffffffffffff168473ffffffffffffffffffffffffffffffffffffffff161480612b845750612b838484611b10565b5b80612bc257508273ffffffffffffffffffffffffffffffffffffffff16612baa83611d94565b73ffffffffffffffffffffffffffffffffffffffff16145b5b90509392505050565b600080600090507a184f03e93ff9f4daa797ed6e38ed64bf6a1f0100000000000000008310612c2a577a184f03e93ff9f4daa797ed6e38ed64bf6a1f0100000000000000008381612c2057612c1f614066565b5b0492506040810190505b6d04ee2d6d415b85acef81000000008310612c67576d04ee2d6d415b85acef81000000008381612c5d57612c5c614066565b5b0492506020810190505b662386f26fc100008310612c9657662386f26fc100008381612c8c57612c8b614066565b5b0492506010810190505b6305f5e1008310612cbf576305f5e1008381612cb557612cb4614066565b5b0492506008810190505b6127108310612ce4576127108381612cda57612cd9614066565b5b0492506004810190505b60648310612d075760648381612cfd57612cfc614066565b5b0492506002810190505b600a8310612d16576001810190505b80915050919050565b6040518060800160405280600081526020016000815260200160608152602001606081525090565b6040518060c00160405280600073ffffffffffffffffffffffffffffffffffffffff16815260200160006002811115612d8357612d82613432565b5b8152602001600081526020016000815260200160008152602001600081525090565b6040518060a00160405280600073ffffffffffffffffffffffffffffffffffffffff16815260200160006002811115612de157612de0613432565b5b81526020016000815260200160608152602001606081525090565b6000604051905090565b600080fd5b600080fd5b60007fffffffff0000000000000000000000000000000000000000000000000000000082169050919050565b612e4581612e10565b8114612e5057600080fd5b50565b600081359050612e6281612e3c565b92915050565b600060208284031215612e7e57612e7d612e06565b5b6000612e8c84828501612e53565b91505092915050565b60008115159050919050565b612eaa81612e95565b82525050565b6000602082019050612ec56000830184612ea1565b92915050565b600081519050919050565b600082825260208201905092915050565b60005b83811015612f05578082015181840152602081019050612eea565b60008484015250505050565b6000601f19601f8301169050919050565b6000612f2d82612ecb565b612f378185612ed6565b9350612f47818560208601612ee7565b612f5081612f11565b840191505092915050565b60006020820190508181036000830152612f758184612f22565b905092915050565b6000819050919050565b612f9081612f7d565b8114612f9b57600080fd5b50565b600081359050612fad81612f87565b92915050565b600060208284031215612fc957612fc8612e06565b5b6000612fd784828501612f9e565b91505092915050565b600073ffffffffffffffffffffffffffffffffffffffff82169050919050565b600061300b82612fe0565b9050919050565b61301b81613000565b82525050565b60006020820190506130366000830184613012565b92915050565b61304581613000565b811461305057600080fd5b50565b6000813590506130628161303c565b92915050565b6000806040838503121561307f5761307e612e06565b5b600061308d85828601613053565b925050602061309e85828601612f9e565b9150509250929050565b6000806000606084860312156130c1576130c0612e06565b5b60006130cf86828701613053565b93505060206130e086828701613053565b92505060406130f186828701612f9e565b9150509250925092565b600080fd5b600080fd5b7f4e487b7100000000000000000000000000000000000000000000000000000000600052604160045260246000fd5b61313d82612f11565b810181811067ffffffffffffffff8211171561315c5761315b613105565b5b80604052505050565b600061316f612dfc565b905061317b8282613134565b919050565b600067ffffffffffffffff82111561319b5761319a613105565b5b6131a482612f11565b9050602081019050919050565b82818337600083830152505050565b60006131d36131ce84613180565b613165565b9050828152602081018484840111156131ef576131ee613100565b5b6131fa8482856131b1565b509392505050565b600082601f830112613217576132166130fb565b5b81356132278482602086016131c0565b91505092915050565b60008060006060848603121561324957613248612e06565b5b600084013567ffffffffffffffff81111561326757613266612e0b565b5b61327386828701613202565b935050602084013567ffffffffffffffff81111561329457613293612e0b565b5b6132a086828701613202565b92505060406132b186828701612f9e565b9150509250925092565b6132c481612f7d565b82525050565b600082825260208201905092915050565b60006132e682612ecb565b6132f081856132ca565b9350613300818560208601612ee7565b61330981612f11565b840191505092915050565b600060808301600083015161332c60008601826132bb565b50602083015161333f60208601826132bb565b506040830151848203604086015261335782826132db565b9150506060830151848203606086015261337182826132db565b9150508091505092915050565b600060208201905081810360008301526133988184613314565b905092915050565b6000602082840312156133b6576133b5612e06565b5b60006133c484828501613053565b91505092915050565b6133d681612f7d565b82525050565b60006020820190506133f160008301846133cd565b92915050565b600081519050919050565b600082825260208201905092915050565b6000819050602082019050919050565b61342c81613000565b82525050565b7f4e487b7100000000000000000000000000000000000000000000000000000000600052602160045260246000fd5b6003811061347257613471613432565b5b50565b600081905061348382613461565b919050565b600061349382613475565b9050919050565b6134a381613488565b82525050565b60c0820160008201516134bf6000850182613423565b5060208201516134d2602085018261349a565b5060408201516134e560408501826132bb565b5060608201516134f860608501826132bb565b50608082015161350b60808501826132bb565b5060a082015161351e60a08501826132bb565b50505050565b600061353083836134a9565b60c08301905092915050565b6000602082019050919050565b6000613554826133f7565b61355e8185613402565b935061356983613413565b8060005b8381101561359a5781516135818882613524565b975061358c8361353c565b92505060018101905061356d565b5085935050505092915050565b600060208201905081810360008301526135c18184613549565b905092915050565b600080604083850312156135e0576135df612e06565b5b60006135ee85828601612f9e565b92505060206135ff85828601612f9e565b9150509250929050565b600081519050919050565b600082825260208201905092915050565b6000819050602082019050919050565b600060808301600083015161364d60008601826132bb565b50602083015161366060208601826132bb565b506040830151848203604086015261367882826132db565b9150506060830151848203606086015261369282826132db565b9150508091505092915050565b60006136ab8383613635565b905092915050565b6000602082019050919050565b60006136cb82613609565b6136d58185613614565b9350836020820285016136e785613625565b8060005b858110156137235784840389528151613704858261369f565b945061370f836136b3565b925060208a019950506001810190506136eb565b50829750879550505050505092915050565b6000602082019050818103600083015261374f81846136c0565b905092915050565b61376081612e95565b811461376b57600080fd5b50565b60008135905061377d81613757565b92915050565b6000806040838503121561379a57613799612e06565b5b60006137a885828601613053565b92505060206137b98582860161376e565b9150509250929050565b600060a0830160008301516137db6000860182613423565b5060208301516137ee602086018261349a565b50604083015161380160408601826132bb565b506060830151848203606086015261381982826132db565b9150506080830151848203608086015261383382826132db565b9150508091505092915050565b6000602082019050818103600083015261385a81846137c3565b905092915050565b600067ffffffffffffffff82111561387d5761387c613105565b5b61388682612f11565b9050602081019050919050565b60006138a66138a184613862565b613165565b9050828152602081018484840111156138c2576138c1613100565b5b6138cd8482856131b1565b509392505050565b600082601f8301126138ea576138e96130fb565b5b81356138fa848260208601613893565b91505092915050565b6000806000806080858703121561391d5761391c612e06565b5b600061392b87828801613053565b945050602061393c87828801613053565b935050604061394d87828801612f9e565b925050606085013567ffffffffffffffff81111561396e5761396d612e0b565b5b61397a878288016138d5565b91505092959194509250565b6000806040838503121561399d5761399c612e06565b5b60006139ab85828601613053565b92505060206139bc85828601613053565b9150509250929050565b7f4e487b7100000000000000000000000000000000000000000000000000000000600052602260045260246000fd5b60006002820490506001821680613a0d57607f821691505b602082108103613a2057613a1f6139c6565b5b50919050565b6000604082019050613a3b60008301856133cd565b613a4860208301846133cd565b9392505050565b7f4e487b7100000000000000000000000000000000000000000000000000000000600052601160045260246000fd5b6000613a8982612f7d565b91507fffffffffffffffffffffffffffffffffffffffffffffffffffffffffffffffff8203613abb57613aba613a4f565b5b600182019050919050565b6000606082019050613adb6000830186613012565b613ae860208301856133cd565b613af56040830184613012565b949350505050565b600081905092915050565b6000613b1382612ecb565b613b1d8185613afd565b9350613b2d818560208601612ee7565b80840191505092915050565b6000613b458284613b08565b915081905092915050565b7f4e487b7100000000000000000000000000000000000000000000000000000000600052603260045260246000fd5b60008190508160005260206000209050919050565b60008154613ba1816139f5565b613bab8186613afd565b94506001821660008114613bc65760018114613bdb57613c0e565b60ff1983168652811515820286019350613c0e565b613be485613b7f565b60005b83811015613c0657815481890152600182019150602081019050613be7565b838801955050505b50505092915050565b6000613c238284613b94565b915081905092915050565b600060ff82169050919050565b6000613c4682613c2e565b915060ff8203613c5957613c58613a4f565b5b600182019050919050565b6000613c6f82612f7d565b9150613c7a83612f7d565b9250828201905080821115613c9257613c91613a4f565b5b92915050565b60006020601f8301049050919050565b600082821b905092915050565b600060088302613ce57fffffffffffffffffffffffffffffffffffffffffffffffffffffffffffffffff82613ca8565b613cef8683613ca8565b95508019841693508086168417925050509392505050565b6000819050919050565b6000613d2c613d27613d2284612f7d565b613d07565b612f7d565b9050919050565b6000819050919050565b613d4683613d11565b613d5a613d5282613d33565b848454613cb5565b825550505050565b600090565b613d6f613d62565b613d7a818484613d3d565b505050565b5b81811015613d9e57613d93600082613d67565b600181019050613d80565b5050565b601f821115613de357613db481613b7f565b613dbd84613c98565b81016020851015613dcc578190505b613de0613dd885613c98565b830182613d7f565b50505b505050565b600082821c905092915050565b6000613e0660001984600802613de8565b1980831691505092915050565b6000613e1f8383613df5565b9150826002028217905092915050565b613e3882612ecb565b67ffffffffffffffff811115613e5157613e50613105565b5b613e5b82546139f5565b613e66828285613da2565b600060209050601f831160018114613e995760008415613e87578287015190505b613e918582613e13565b865550613ef9565b601f198416613ea786613b7f565b60005b82811015613ecf57848901518255600182019150602085019450602081019050613eaa565b86831015613eec5784890151613ee8601f891682613df5565b8355505b6001600288020188555050505b505050505050565b6000613f0c82613c2e565b9150613f1783613c2e565b9250828201905060ff811115613f3057613f2f613a4f565b5b92915050565b6000613f428285613b08565b9150613f4e8284613b08565b91508190509392505050565b600081519050919050565b600082825260208201905092915050565b6000613f8182613f5a565b613f8b8185613f65565b9350613f9b818560208601612ee7565b613fa481612f11565b840191505092915050565b6000608082019050613fc46000830187613012565b613fd16020830186613012565b613fde60408301856133cd565b8181036060830152613ff08184613f76565b905095945050505050565b60008151905061400a81612e3c565b92915050565b60006020828403121561402657614025612e06565b5b600061403484828501613ffb565b91505092915050565b60006040820190506140526000830185613012565b61405f60208301846133cd565b9392505050565b7f4e487b7100000000000000000000000000000000000000000000000000000000600052601260045260246000fdfea2646970667358221220ca53e903307c133009f1e104e4a2492e5379ca161d1c019e46b2cd582ff60e7164736f6c63430008140033a2646970667358221220d9983a3787ea9c2ea6d278577d779b8f0fa39e126c1d629cd8529586d5814dab64736f6c63430008140033",
  "devdoc": {
    "kind": "dev",
    "methods": {},
    "version": 1
  },
  "userdoc": {
    "kind": "user",
    "methods": {},
    "version": 1
  },
  "storageLayout": {
    "storage": [
      {
        "astId": 3640,
        "contract": "contracts/MemberMeFactory.sol:MemberMeFactory",
        "label": "contractAddresses",
        "offset": 0,
        "slot": "0",
        "type": "t_array(t_address)dyn_storage"
      }
    ],
    "types": {
      "t_address": {
        "encoding": "inplace",
        "label": "address",
        "numberOfBytes": "20"
      },
      "t_array(t_address)dyn_storage": {
        "base": "t_address",
        "encoding": "dynamic_array",
        "label": "address[]",
        "numberOfBytes": "32"
      }
    }
  }
}