{
  "address": "0x5FbDB2315678afecb367f032d93F642f64180aa3",
  "abi": [
    {
      "anonymous": false,
      "inputs": [
        {
          "indexed": true,
          "internalType": "address",
          "name": "newContractAddress",
          "type": "address"
        }
      ],
      "name": "ContractCreated",
      "type": "event"
    },
    {
      "inputs": [
        {
          "internalType": "uint256",
          "name": "",
          "type": "uint256"
        }
      ],
      "name": "contractAddresses",
      "outputs": [
        {
          "internalType": "address",
          "name": "",
          "type": "address"
        }
      ],
      "stateMutability": "view",
      "type": "function"
    },
    {
      "inputs": [
        {
          "internalType": "string",
          "name": "_name",
          "type": "string"
        },
        {
          "internalType": "string",
          "name": "_symbol",
          "type": "string"
        }
      ],
      "name": "createContract",
      "outputs": [
        {
          "internalType": "address",
          "name": "",
          "type": "address"
        }
      ],
      "stateMutability": "nonpayable",
      "type": "function"
    },
    {
      "inputs": [],
      "name": "getContractAddresses",
      "outputs": [
        {
          "internalType": "address[]",
          "name": "",
          "type": "address[]"
        }
      ],
      "stateMutability": "view",
      "type": "function"
    }
  ],
  "transactionHash": "0xbf549994f85022b125bb384d36731b182eecc3f153c1c49f65e1a0cc54703e80",
  "args": [],
  "numDeployments": 1,
  "solcInputHash": "9ef41087b49ca804394358147711891e",
  "bytecode": "0x608060405234801561001057600080fd5b50614f22806100206000396000f3fe60806040523480156200001157600080fd5b5060043610620000465760003560e01c80633263b545146200004b578063631a42311462000081578063953874d214620000b7575b600080fd5b620000696004803603810190620000639190620002f8565b620000d9565b6040516200007891906200036f565b60405180910390f35b6200009f6004803603810190620000999190620004ee565b62000119565b604051620000ae91906200036f565b60405180910390f35b620000c16200020b565b604051620000d0919062000641565b60405180910390f35b60008181548110620000ea57600080fd5b906000526020600020016000915054906101000a900473ffffffffffffffffffffffffffffffffffffffff1681565b6000808383336040516200012d906200029b565b6200013b93929190620006ee565b604051809103906000f08015801562000158573d6000803e3d6000fd5b5090506000819080600181540180825580915050600190039060005260206000200160009091909190916101000a81548173ffffffffffffffffffffffffffffffffffffffff021916908373ffffffffffffffffffffffffffffffffffffffff1602179055508073ffffffffffffffffffffffffffffffffffffffff167fcf78cf0d6f3d8371e1075c69c492ab4ec5d8cf23a1a239b6a51a1d00be7ca31260405160405180910390a28091505092915050565b606060008054806020026020016040519081016040528092919081815260200182805480156200029157602002820191906000526020600020905b8160009054906101000a900473ffffffffffffffffffffffffffffffffffffffff1673ffffffffffffffffffffffffffffffffffffffff168152602001906001019080831162000246575b5050505050905090565b6147b3806200073a83390190565b6000604051905090565b600080fd5b600080fd5b6000819050919050565b620002d281620002bd565b8114620002de57600080fd5b50565b600081359050620002f281620002c7565b92915050565b600060208284031215620003115762000310620002b3565b5b60006200032184828501620002e1565b91505092915050565b600073ffffffffffffffffffffffffffffffffffffffff82169050919050565b600062000357826200032a565b9050919050565b62000369816200034a565b82525050565b60006020820190506200038660008301846200035e565b92915050565b600080fd5b600080fd5b6000601f19601f8301169050919050565b7f4e487b7100000000000000000000000000000000000000000000000000000000600052604160045260246000fd5b620003e18262000396565b810181811067ffffffffffffffff82111715620004035762000402620003a7565b5b80604052505050565b600062000418620002a9565b9050620004268282620003d6565b919050565b600067ffffffffffffffff821115620004495762000448620003a7565b5b620004548262000396565b9050602081019050919050565b82818337600083830152505050565b60006200048762000481846200042b565b6200040c565b905082815260208101848484011115620004a657620004a562000391565b5b620004b384828562000461565b509392505050565b600082601f830112620004d357620004d26200038c565b5b8135620004e584826020860162000470565b91505092915050565b60008060408385031215620005085762000507620002b3565b5b600083013567ffffffffffffffff811115620005295762000528620002b8565b5b6200053785828601620004bb565b925050602083013567ffffffffffffffff8111156200055b576200055a620002b8565b5b6200056985828601620004bb565b9150509250929050565b600081519050919050565b600082825260208201905092915050565b6000819050602082019050919050565b620005aa816200034a565b82525050565b6000620005be83836200059f565b60208301905092915050565b6000602082019050919050565b6000620005e48262000573565b620005f081856200057e565b9350620005fd836200058f565b8060005b8381101562000634578151620006188882620005b0565b97506200062583620005ca565b92505060018101905062000601565b5085935050505092915050565b600060208201905081810360008301526200065d8184620005d7565b905092915050565b600081519050919050565b600082825260208201905092915050565b60005b83811015620006a157808201518184015260208101905062000684565b60008484015250505050565b6000620006ba8262000665565b620006c6818562000670565b9350620006d881856020860162000681565b620006e38162000396565b840191505092915050565b600060608201905081810360008301526200070a8186620006ad565b90508181036020830152620007208185620006ad565b90506200073160408301846200035e565b94935050505056fe60806040523480156200001157600080fd5b50604051620047b3380380620047b38339818101604052810190620000379190620003b6565b80838381600090816200004b91906200069b565b5080600190816200005d91906200069b565b505050600073ffffffffffffffffffffffffffffffffffffffff168173ffffffffffffffffffffffffffffffffffffffff1603620000d55760006040517f1e4fbdf7000000000000000000000000000000000000000000000000000000008152600401620000cc919062000793565b60405180910390fd5b620000e681620000f860201b60201c565b506000600881905550505050620007b0565b6000600760009054906101000a900473ffffffffffffffffffffffffffffffffffffffff16905081600760006101000a81548173ffffffffffffffffffffffffffffffffffffffff021916908373ffffffffffffffffffffffffffffffffffffffff1602179055508173ffffffffffffffffffffffffffffffffffffffff168173ffffffffffffffffffffffffffffffffffffffff167f8be0079c531659141344cd1fd0a4f28419497f9722a3daafe3b4186f6b6457e060405160405180910390a35050565b6000604051905090565b600080fd5b600080fd5b600080fd5b600080fd5b6000601f19601f8301169050919050565b7f4e487b7100000000000000000000000000000000000000000000000000000000600052604160045260246000fd5b6200022782620001dc565b810181811067ffffffffffffffff82111715620002495762000248620001ed565b5b80604052505050565b60006200025e620001be565b90506200026c82826200021c565b919050565b600067ffffffffffffffff8211156200028f576200028e620001ed565b5b6200029a82620001dc565b9050602081019050919050565b60005b83811015620002c7578082015181840152602081019050620002aa565b60008484015250505050565b6000620002ea620002e48462000271565b62000252565b905082815260208101848484011115620003095762000308620001d7565b5b62000316848285620002a7565b509392505050565b600082601f830112620003365762000335620001d2565b5b815162000348848260208601620002d3565b91505092915050565b600073ffffffffffffffffffffffffffffffffffffffff82169050919050565b60006200037e8262000351565b9050919050565b620003908162000371565b81146200039c57600080fd5b50565b600081519050620003b08162000385565b92915050565b600080600060608486031215620003d257620003d1620001c8565b5b600084015167ffffffffffffffff811115620003f357620003f2620001cd565b5b62000401868287016200031e565b935050602084015167ffffffffffffffff811115620004255762000424620001cd565b5b62000433868287016200031e565b925050604062000446868287016200039f565b9150509250925092565b600081519050919050565b7f4e487b7100000000000000000000000000000000000000000000000000000000600052602260045260246000fd5b60006002820490506001821680620004a357607f821691505b602082108103620004b957620004b86200045b565b5b50919050565b60008190508160005260206000209050919050565b60006020601f8301049050919050565b600082821b905092915050565b600060088302620005237fffffffffffffffffffffffffffffffffffffffffffffffffffffffffffffffff82620004e4565b6200052f8683620004e4565b95508019841693508086168417925050509392505050565b6000819050919050565b6000819050919050565b60006200057c62000576620005708462000547565b62000551565b62000547565b9050919050565b6000819050919050565b62000598836200055b565b620005b0620005a78262000583565b848454620004f1565b825550505050565b600090565b620005c7620005b8565b620005d48184846200058d565b505050565b5b81811015620005fc57620005f0600082620005bd565b600181019050620005da565b5050565b601f8211156200064b576200061581620004bf565b6200062084620004d4565b8101602085101562000630578190505b620006486200063f85620004d4565b830182620005d9565b50505b505050565b600082821c905092915050565b6000620006706000198460080262000650565b1980831691505092915050565b60006200068b83836200065d565b9150826002028217905092915050565b620006a68262000450565b67ffffffffffffffff811115620006c257620006c1620001ed565b5b620006ce82546200048a565b620006db82828562000600565b600060209050601f831160018114620007135760008415620006fe578287015190505b6200070a85826200067d565b8655506200077a565b601f1984166200072386620004bf565b60005b828110156200074d5784890151825560018201915060208501945060208101905062000726565b868310156200076d578489015162000769601f8916826200065d565b8355505b6001600288020188555050505b505050505050565b6200078d8162000371565b82525050565b6000602082019050620007aa600083018462000782565b92915050565b613ff380620007c06000396000f3fe60806040526004361061014b5760003560e01c806381e168c2116100b6578063a22cb4651161006f578063a22cb46514610474578063abb88bcc1461049d578063b88d4fde146104c8578063c87b56dd146104f1578063e985e9c51461052e578063f2fde38b1461056b5761014b565b806381e168c21461038557806389def320146103ae5780638c99f69a146103d75780638da5cb5b146103f357806395d89b411461041e57806398de396a146104495761014b565b806342842e0e1161010857806342842e0e146102635780634e4f49121461028c5780636352211e146102c957806370a0823114610306578063714e713114610343578063715018a61461036e5761014b565b806301ffc9a71461015057806306fdde031461018d578063081812fc146101b8578063095ea7b3146101f55780630d78d0c11461021e57806323b872dd1461023a575b600080fd5b34801561015c57600080fd5b5061017760048036038101906101729190612d3e565b610594565b6040516101849190612d86565b60405180910390f35b34801561019957600080fd5b506101a26105f5565b6040516101af9190612e31565b60405180910390f35b3480156101c457600080fd5b506101df60048036038101906101da9190612e89565b610687565b6040516101ec9190612ef7565b60405180910390f35b34801561020157600080fd5b5061021c60048036038101906102179190612f3e565b6106a3565b005b61023860048036038101906102339190612e89565b6106b9565b005b34801561024657600080fd5b50610261600480360381019061025c9190612f7e565b610a5b565b005b34801561026f57600080fd5b5061028a60048036038101906102859190612f7e565b610b5d565b005b34801561029857600080fd5b506102b360048036038101906102ae9190613106565b610b7d565b6040516102c09190613254565b60405180910390f35b3480156102d557600080fd5b506102f060048036038101906102eb9190612e89565b610db1565b6040516102fd9190612ef7565b60405180910390f35b34801561031257600080fd5b5061032d60048036038101906103289190613276565b610dc3565b60405161033a91906132b2565b60405180910390f35b34801561034f57600080fd5b50610358610e7d565b60405161036591906134b1565b60405180910390f35b34801561037a57600080fd5b506103836110df565b005b34801561039157600080fd5b506103ac60048036038101906103a79190612e89565b6110f3565b005b3480156103ba57600080fd5b506103d560048036038101906103d09190612e89565b61117d565b005b6103f160048036038101906103ec91906134d3565b611261565b005b3480156103ff57600080fd5b506104086113cd565b6040516104159190612ef7565b60405180910390f35b34801561042a57600080fd5b506104336113f7565b6040516104409190612e31565b60405180910390f35b34801561045557600080fd5b5061045e611489565b60405161046b919061363f565b60405180910390f35b34801561048057600080fd5b5061049b6004803603810190610496919061368d565b611620565b005b3480156104a957600080fd5b506104b2611636565b6040516104bf9190613769565b60405180910390f35b3480156104d457600080fd5b506104ef60048036038101906104ea919061382c565b6117d8565b005b3480156104fd57600080fd5b5061051860048036038101906105139190612e89565b6117f5565b6040516105259190612e31565b60405180910390f35b34801561053a57600080fd5b50610555600480360381019061055091906138af565b611908565b6040516105629190612d86565b60405180910390f35b34801561057757600080fd5b50610592600480360381019061058d9190613276565b61199c565b005b6000634906490660e01b7bffffffffffffffffffffffffffffffffffffffffffffffffffffffff1916827bffffffffffffffffffffffffffffffffffffffffffffffffffffffff191614806105ee57506105ed82611a22565b5b9050919050565b6060600080546106049061391e565b80601f01602080910402602001604051908101604052809291908181526020018280546106309061391e565b801561067d5780601f106106525761010080835404028352916020019161067d565b820191906000526020600020905b81548152906001019060200180831161066057829003601f168201915b5050505050905090565b600061069282611b04565b5061069c82611b8c565b9050919050565b6106b582826106b0611bc9565b611bd1565b5050565b60098054905081111561070257806040517e57d0770000000000000000000000000000000000000000000000000000000081526004016106f991906132b2565b60405180910390fd5b6000600a600083815260200190815260200160002060405180608001604052908160008201548152602001600182015481526020016002820180546107469061391e565b80601f01602080910402602001604051908101604052809291908181526020018280546107729061391e565b80156107bf5780601f10610794576101008083540402835291602001916107bf565b820191906000526020600020905b8154815290600101906020018083116107a257829003601f168201915b505050505081526020016003820180546107d89061391e565b80601f01602080910402602001604051908101604052809291908181526020018280546108049061391e565b80156108515780601f1061082657610100808354040283529160200191610851565b820191906000526020600020905b81548152906001019060200180831161083457829003601f168201915b5050505050815250509050806020015134146108aa573481602001516040517f453e8e9e0000000000000000000000000000000000000000000000000000000081526004016108a192919061394f565b60405180910390fd5b600860008154809291906108bd906139a7565b91905055506108ce33600854611be3565b6108de6008548260600151611c01565b6108f233600c611c5d90919063ffffffff16565b506040518060e001604052803373ffffffffffffffffffffffffffffffffffffffff1681526020016000600281111561092e5761092d613308565b5b81526020018260000151815260200160085481526020014281526020016000815260200161095d6008546117f5565b815250600b60003373ffffffffffffffffffffffffffffffffffffffff1673ffffffffffffffffffffffffffffffffffffffff16815260200190815260200160002060008201518160000160006101000a81548173ffffffffffffffffffffffffffffffffffffffff021916908373ffffffffffffffffffffffffffffffffffffffff16021790555060208201518160000160146101000a81548160ff02191690836002811115610a1157610a10613308565b5b021790555060408201518160010155606082015181600201556080820151816003015560a0820151816004015560c0820151816005019081610a539190613b9b565b509050505050565b600073ffffffffffffffffffffffffffffffffffffffff168273ffffffffffffffffffffffffffffffffffffffff1603610acd5760006040517f64a0ae92000000000000000000000000000000000000000000000000000000008152600401610ac49190612ef7565b60405180910390fd5b6000610ae18383610adc611bc9565b611c8d565b90508373ffffffffffffffffffffffffffffffffffffffff168173ffffffffffffffffffffffffffffffffffffffff1614610b57578382826040517f64283d7b000000000000000000000000000000000000000000000000000000008152600401610b4e93929190613c6d565b60405180910390fd5b50505050565b610b78838383604051806020016040528060008152506117d8565b505050565b610b85612c45565b610b8d611ea7565b60005b6009805490508160ff161015610c6a5784604051602001610bb19190613ce0565b6040516020818303038152906040528051906020012060098260ff1681548110610bde57610bdd613cf7565b5b9060005260206000209060040201600201604051602001610bff9190613da9565b6040516020818303038152906040528051906020012003610c5757846040517f1e8ff5c6000000000000000000000000000000000000000000000000000000008152600401610c4e9190612e31565b60405180910390fd5b8080610c6290613dcd565b915050610b90565b5060008203610ca5576040517f2c669f0a00000000000000000000000000000000000000000000000000000000815260040160405180910390fd5b60006001600980549050610cb99190613df6565b905060006040518060800160405280838152602001858152602001878152602001868152509050600981908060018154018082558091505060019003906000526020600020906004020160009091909190915060008201518160000155602082015181600101556040820151816002019081610d359190613b9b565b506060820151816003019081610d4b9190613b9b565b50505080600a600084815260200190815260200160002060008201518160000155602082015181600101556040820151816002019081610d8b9190613b9b565b506060820151816003019081610da19190613b9b565b5090505080925050509392505050565b6000610dbc82611b04565b9050919050565b60008073ffffffffffffffffffffffffffffffffffffffff168273ffffffffffffffffffffffffffffffffffffffff1603610e365760006040517f89c62b64000000000000000000000000000000000000000000000000000000008152600401610e2d9190612ef7565b60405180910390fd5b600360008373ffffffffffffffffffffffffffffffffffffffff1673ffffffffffffffffffffffffffffffffffffffff168152602001908152602001600020549050919050565b6060610e87611ea7565b6000610e93600c611f2e565b67ffffffffffffffff811115610eac57610eab612fdb565b5b604051908082528060200260200182016040528015610ee557816020015b610ed2612c6d565b815260200190600190039081610eca5790505b50905060005b6008548160ff1610156110d757600b6000610f138360ff16600c611f4390919063ffffffff16565b73ffffffffffffffffffffffffffffffffffffffff1673ffffffffffffffffffffffffffffffffffffffff1681526020019081526020016000206040518060e00160405290816000820160009054906101000a900473ffffffffffffffffffffffffffffffffffffffff1673ffffffffffffffffffffffffffffffffffffffff1673ffffffffffffffffffffffffffffffffffffffff1681526020016000820160149054906101000a900460ff166002811115610fd357610fd2613308565b5b6002811115610fe557610fe4613308565b5b8152602001600182015481526020016002820154815260200160038201548152602001600482015481526020016005820180546110219061391e565b80601f016020809104026020016040519081016040528092919081815260200182805461104d9061391e565b801561109a5780601f1061106f5761010080835404028352916020019161109a565b820191906000526020600020905b81548152906001019060200180831161107d57829003601f168201915b505050505081525050828260ff16815181106110b9576110b8613cf7565b5b602002602001018190525080806110cf90613dcd565b915050610eeb565b508091505090565b6110e7611ea7565b6110f16000611f5d565b565b6110fb611ea7565b600061110682610db1565b90506000600b60008373ffffffffffffffffffffffffffffffffffffffff1673ffffffffffffffffffffffffffffffffffffffff168152602001908152602001600020905060028160000160146101000a81548160ff0219169083600281111561117357611172613308565b5b0217905550505050565b61118681610db1565b73ffffffffffffffffffffffffffffffffffffffff163373ffffffffffffffffffffffffffffffffffffffff16146111ea576040517f3d693ada00000000000000000000000000000000000000000000000000000000815260040160405180910390fd5b6111f381612023565b6001600b60003373ffffffffffffffffffffffffffffffffffffffff1673ffffffffffffffffffffffffffffffffffffffff16815260200190815260200160002060000160146101000a81548160ff0219169083600281111561125957611258613308565b5b021790555050565b61126a82610db1565b73ffffffffffffffffffffffffffffffffffffffff163373ffffffffffffffffffffffffffffffffffffffff16146112ce576040517f3d693ada00000000000000000000000000000000000000000000000000000000815260040160405180910390fd5b6000600b60003373ffffffffffffffffffffffffffffffffffffffff1673ffffffffffffffffffffffffffffffffffffffff168152602001908152602001600020905060006009600183600101546113269190613e2a565b8154811061133757611336613cf7565b5b90600052602060002090600402016001015490508034146113915734816040517f453e8e9e00000000000000000000000000000000000000000000000000000000815260040161138892919061394f565b60405180910390fd5b82826004018190555060008260000160146101000a81548160ff021916908360028111156113c2576113c1613308565b5b021790555050505050565b6000600760009054906101000a900473ffffffffffffffffffffffffffffffffffffffff16905090565b6060600180546114069061391e565b80601f01602080910402602001604051908101604052809291908181526020018280546114329061391e565b801561147f5780601f106114545761010080835404028352916020019161147f565b820191906000526020600020905b81548152906001019060200180831161146257829003601f168201915b5050505050905090565b60606009805480602002602001604051908101604052809291908181526020016000905b82821015611617578382906000526020600020906004020160405180608001604052908160008201548152602001600182015481526020016002820180546114f49061391e565b80601f01602080910402602001604051908101604052809291908181526020018280546115209061391e565b801561156d5780601f106115425761010080835404028352916020019161156d565b820191906000526020600020905b81548152906001019060200180831161155057829003601f168201915b505050505081526020016003820180546115869061391e565b80601f01602080910402602001604051908101604052809291908181526020018280546115b29061391e565b80156115ff5780601f106115d4576101008083540402835291602001916115ff565b820191906000526020600020905b8154815290600101906020018083116115e257829003601f168201915b505050505081525050815260200190600101906114ad565b50505050905090565b61163261162b611bc9565b83836120a9565b5050565b61163e612c6d565b600b60003373ffffffffffffffffffffffffffffffffffffffff1673ffffffffffffffffffffffffffffffffffffffff1681526020019081526020016000206040518060e00160405290816000820160009054906101000a900473ffffffffffffffffffffffffffffffffffffffff1673ffffffffffffffffffffffffffffffffffffffff1673ffffffffffffffffffffffffffffffffffffffff1681526020016000820160149054906101000a900460ff16600281111561170357611702613308565b5b600281111561171557611714613308565b5b8152602001600182015481526020016002820154815260200160038201548152602001600482015481526020016005820180546117519061391e565b80601f016020809104026020016040519081016040528092919081815260200182805461177d9061391e565b80156117ca5780601f1061179f576101008083540402835291602001916117ca565b820191906000526020600020905b8154815290600101906020018083116117ad57829003601f168201915b505050505081525050905090565b6117e3848484610a5b565b6117ef84848484612218565b50505050565b606061180082611b04565b5060006006600084815260200190815260200160002080546118219061391e565b80601f016020809104026020016040519081016040528092919081815260200182805461184d9061391e565b801561189a5780601f1061186f5761010080835404028352916020019161189a565b820191906000526020600020905b81548152906001019060200180831161187d57829003601f168201915b5050505050905060006118ab6123cf565b905060008151036118c0578192505050611903565b6000825111156118f55780826040516020016118dd929190613e5e565b60405160208183030381529060405292505050611903565b6118fe846123e6565b925050505b919050565b6000600560008473ffffffffffffffffffffffffffffffffffffffff1673ffffffffffffffffffffffffffffffffffffffff16815260200190815260200160002060008373ffffffffffffffffffffffffffffffffffffffff1673ffffffffffffffffffffffffffffffffffffffff16815260200190815260200160002060009054906101000a900460ff16905092915050565b6119a4611ea7565b600073ffffffffffffffffffffffffffffffffffffffff168173ffffffffffffffffffffffffffffffffffffffff1603611a165760006040517f1e4fbdf7000000000000000000000000000000000000000000000000000000008152600401611a0d9190612ef7565b60405180910390fd5b611a1f81611f5d565b50565b60007f80ac58cd000000000000000000000000000000000000000000000000000000007bffffffffffffffffffffffffffffffffffffffffffffffffffffffff1916827bffffffffffffffffffffffffffffffffffffffffffffffffffffffff19161480611aed57507f5b5e139f000000000000000000000000000000000000000000000000000000007bffffffffffffffffffffffffffffffffffffffffffffffffffffffff1916827bffffffffffffffffffffffffffffffffffffffffffffffffffffffff1916145b80611afd5750611afc8261244f565b5b9050919050565b600080611b10836124b9565b9050600073ffffffffffffffffffffffffffffffffffffffff168173ffffffffffffffffffffffffffffffffffffffff1603611b8357826040517f7e273289000000000000000000000000000000000000000000000000000000008152600401611b7a91906132b2565b60405180910390fd5b80915050919050565b60006004600083815260200190815260200160002060009054906101000a900473ffffffffffffffffffffffffffffffffffffffff169050919050565b600033905090565b611bde83838360016124f6565b505050565b611bfd8282604051806020016040528060008152506126bb565b5050565b80600660008481526020019081526020016000209081611c219190613b9b565b507ff8e1a15aba9398e019f0b49df1a4fde98ee17ae345cb5f6b5e2c27f5033e8ce782604051611c5191906132b2565b60405180910390a15050565b6000611c85836000018373ffffffffffffffffffffffffffffffffffffffff1660001b6126d7565b905092915050565b600080611c99846124b9565b9050600073ffffffffffffffffffffffffffffffffffffffff168373ffffffffffffffffffffffffffffffffffffffff1614611cdb57611cda818486612747565b5b600073ffffffffffffffffffffffffffffffffffffffff168173ffffffffffffffffffffffffffffffffffffffff1614611d6c57611d1d6000856000806124f6565b6001600360008373ffffffffffffffffffffffffffffffffffffffff1673ffffffffffffffffffffffffffffffffffffffff168152602001908152602001600020600082825403925050819055505b600073ffffffffffffffffffffffffffffffffffffffff168573ffffffffffffffffffffffffffffffffffffffff1614611def576001600360008773ffffffffffffffffffffffffffffffffffffffff1673ffffffffffffffffffffffffffffffffffffffff168152602001908152602001600020600082825401925050819055505b846002600086815260200190815260200160002060006101000a81548173ffffffffffffffffffffffffffffffffffffffff021916908373ffffffffffffffffffffffffffffffffffffffff160217905550838573ffffffffffffffffffffffffffffffffffffffff168273ffffffffffffffffffffffffffffffffffffffff167fddf252ad1be2c89b69c2b068fc378daa952ba7f163c4a11628f55a4df523b3ef60405160405180910390a4809150509392505050565b611eaf611bc9565b73ffffffffffffffffffffffffffffffffffffffff16611ecd6113cd565b73ffffffffffffffffffffffffffffffffffffffff1614611f2c57611ef0611bc9565b6040517f118cdaa7000000000000000000000000000000000000000000000000000000008152600401611f239190612ef7565b60405180910390fd5b565b6000611f3c8260000161280b565b9050919050565b6000611f52836000018361281c565b60001c905092915050565b6000600760009054906101000a900473ffffffffffffffffffffffffffffffffffffffff16905081600760006101000a81548173ffffffffffffffffffffffffffffffffffffffff021916908373ffffffffffffffffffffffffffffffffffffffff1602179055508173ffffffffffffffffffffffffffffffffffffffff168173ffffffffffffffffffffffffffffffffffffffff167f8be0079c531659141344cd1fd0a4f28419497f9722a3daafe3b4186f6b6457e060405160405180910390a35050565b60006120326000836000611c8d565b9050600073ffffffffffffffffffffffffffffffffffffffff168173ffffffffffffffffffffffffffffffffffffffff16036120a557816040517f7e27328900000000000000000000000000000000000000000000000000000000815260040161209c91906132b2565b60405180910390fd5b5050565b600073ffffffffffffffffffffffffffffffffffffffff168273ffffffffffffffffffffffffffffffffffffffff160361211a57816040517f5b08ba180000000000000000000000000000000000000000000000000000000081526004016121119190612ef7565b60405180910390fd5b80600560008573ffffffffffffffffffffffffffffffffffffffff1673ffffffffffffffffffffffffffffffffffffffff16815260200190815260200160002060008473ffffffffffffffffffffffffffffffffffffffff1673ffffffffffffffffffffffffffffffffffffffff16815260200190815260200160002060006101000a81548160ff0219169083151502179055508173ffffffffffffffffffffffffffffffffffffffff168373ffffffffffffffffffffffffffffffffffffffff167f17307eab39ab6107e8899845ad3d59bd9653f200f220920489ca2b5937696c318360405161220b9190612d86565b60405180910390a3505050565b60008373ffffffffffffffffffffffffffffffffffffffff163b11156123c9578273ffffffffffffffffffffffffffffffffffffffff1663150b7a0261225c611bc9565b8685856040518563ffffffff1660e01b815260040161227e9493929190613ed7565b6020604051808303816000875af19250505080156122ba57506040513d601f19601f820116820180604052508101906122b79190613f38565b60015b61233e573d80600081146122ea576040519150601f19603f3d011682016040523d82523d6000602084013e6122ef565b606091505b50600081510361233657836040517f64a0ae9200000000000000000000000000000000000000000000000000000000815260040161232d9190612ef7565b60405180910390fd5b805181602001fd5b63150b7a0260e01b7bffffffffffffffffffffffffffffffffffffffffffffffffffffffff1916817bffffffffffffffffffffffffffffffffffffffffffffffffffffffff1916146123c757836040517f64a0ae920000000000000000000000000000000000000000000000000000000081526004016123be9190612ef7565b60405180910390fd5b505b50505050565b606060405180602001604052806000815250905090565b60606123f182611b04565b5060006123fc6123cf565b9050600081511161241c5760405180602001604052806000815250612447565b8061242684612847565b604051602001612437929190613e5e565b6040516020818303038152906040525b915050919050565b60007f01ffc9a7000000000000000000000000000000000000000000000000000000007bffffffffffffffffffffffffffffffffffffffffffffffffffffffff1916827bffffffffffffffffffffffffffffffffffffffffffffffffffffffff1916149050919050565b60006002600083815260200190815260200160002060009054906101000a900473ffffffffffffffffffffffffffffffffffffffff169050919050565b808061252f5750600073ffffffffffffffffffffffffffffffffffffffff168273ffffffffffffffffffffffffffffffffffffffff1614155b1561266357600061253f84611b04565b9050600073ffffffffffffffffffffffffffffffffffffffff168373ffffffffffffffffffffffffffffffffffffffff16141580156125aa57508273ffffffffffffffffffffffffffffffffffffffff168173ffffffffffffffffffffffffffffffffffffffff1614155b80156125bd57506125bb8184611908565b155b156125ff57826040517fa9fbf51f0000000000000000000000000000000000000000000000000000000081526004016125f69190612ef7565b60405180910390fd5b811561266157838573ffffffffffffffffffffffffffffffffffffffff168273ffffffffffffffffffffffffffffffffffffffff167f8c5be1e5ebec7d5bd14f71427d1e84f3dd0314c0f7b2291e5b200ac8c7c3b92560405160405180910390a45b505b836004600085815260200190815260200160002060006101000a81548173ffffffffffffffffffffffffffffffffffffffff021916908373ffffffffffffffffffffffffffffffffffffffff16021790555050505050565b6126c58383612915565b6126d26000848484612218565b505050565b60006126e38383612a0e565b61273c578260000182908060018154018082558091505060019003906000526020600020016000909190919091505582600001805490508360010160008481526020019081526020016000208190555060019050612741565b600090505b92915050565b612752838383612a31565b61280657600073ffffffffffffffffffffffffffffffffffffffff168373ffffffffffffffffffffffffffffffffffffffff16036127c757806040517f7e2732890000000000000000000000000000000000000000000000000000000081526004016127be91906132b2565b60405180910390fd5b81816040517f177e802f0000000000000000000000000000000000000000000000000000000081526004016127fd929190613f65565b60405180910390fd5b505050565b600081600001805490509050919050565b600082600001828154811061283457612833613cf7565b5b9060005260206000200154905092915050565b60606000600161285684612af2565b01905060008167ffffffffffffffff81111561287557612874612fdb565b5b6040519080825280601f01601f1916602001820160405280156128a75781602001600182028036833780820191505090505b509050600082602001820190505b60011561290a578080600190039150507f3031323334353637383961626364656600000000000000000000000000000000600a86061a8153600a85816128fe576128fd613f8e565b5b049450600085036128b5575b819350505050919050565b600073ffffffffffffffffffffffffffffffffffffffff168273ffffffffffffffffffffffffffffffffffffffff16036129875760006040517f64a0ae9200000000000000000000000000000000000000000000000000000000815260040161297e9190612ef7565b60405180910390fd5b600061299583836000611c8d565b9050600073ffffffffffffffffffffffffffffffffffffffff168173ffffffffffffffffffffffffffffffffffffffff1614612a095760006040517f73c6ac6e000000000000000000000000000000000000000000000000000000008152600401612a009190612ef7565b60405180910390fd5b505050565b600080836001016000848152602001908152602001600020541415905092915050565b60008073ffffffffffffffffffffffffffffffffffffffff168373ffffffffffffffffffffffffffffffffffffffff1614158015612ae957508273ffffffffffffffffffffffffffffffffffffffff168473ffffffffffffffffffffffffffffffffffffffff161480612aaa5750612aa98484611908565b5b80612ae857508273ffffffffffffffffffffffffffffffffffffffff16612ad083611b8c565b73ffffffffffffffffffffffffffffffffffffffff16145b5b90509392505050565b600080600090507a184f03e93ff9f4daa797ed6e38ed64bf6a1f0100000000000000008310612b50577a184f03e93ff9f4daa797ed6e38ed64bf6a1f0100000000000000008381612b4657612b45613f8e565b5b0492506040810190505b6d04ee2d6d415b85acef81000000008310612b8d576d04ee2d6d415b85acef81000000008381612b8357612b82613f8e565b5b0492506020810190505b662386f26fc100008310612bbc57662386f26fc100008381612bb257612bb1613f8e565b5b0492506010810190505b6305f5e1008310612be5576305f5e1008381612bdb57612bda613f8e565b5b0492506008810190505b6127108310612c0a576127108381612c0057612bff613f8e565b5b0492506004810190505b60648310612c2d5760648381612c2357612c22613f8e565b5b0492506002810190505b600a8310612c3c576001810190505b80915050919050565b6040518060800160405280600081526020016000815260200160608152602001606081525090565b6040518060e00160405280600073ffffffffffffffffffffffffffffffffffffffff16815260200160006002811115612ca957612ca8613308565b5b815260200160008152602001600081526020016000815260200160008152602001606081525090565b6000604051905090565b600080fd5b600080fd5b60007fffffffff0000000000000000000000000000000000000000000000000000000082169050919050565b612d1b81612ce6565b8114612d2657600080fd5b50565b600081359050612d3881612d12565b92915050565b600060208284031215612d5457612d53612cdc565b5b6000612d6284828501612d29565b91505092915050565b60008115159050919050565b612d8081612d6b565b82525050565b6000602082019050612d9b6000830184612d77565b92915050565b600081519050919050565b600082825260208201905092915050565b60005b83811015612ddb578082015181840152602081019050612dc0565b60008484015250505050565b6000601f19601f8301169050919050565b6000612e0382612da1565b612e0d8185612dac565b9350612e1d818560208601612dbd565b612e2681612de7565b840191505092915050565b60006020820190508181036000830152612e4b8184612df8565b905092915050565b6000819050919050565b612e6681612e53565b8114612e7157600080fd5b50565b600081359050612e8381612e5d565b92915050565b600060208284031215612e9f57612e9e612cdc565b5b6000612ead84828501612e74565b91505092915050565b600073ffffffffffffffffffffffffffffffffffffffff82169050919050565b6000612ee182612eb6565b9050919050565b612ef181612ed6565b82525050565b6000602082019050612f0c6000830184612ee8565b92915050565b612f1b81612ed6565b8114612f2657600080fd5b50565b600081359050612f3881612f12565b92915050565b60008060408385031215612f5557612f54612cdc565b5b6000612f6385828601612f29565b9250506020612f7485828601612e74565b9150509250929050565b600080600060608486031215612f9757612f96612cdc565b5b6000612fa586828701612f29565b9350506020612fb686828701612f29565b9250506040612fc786828701612e74565b9150509250925092565b600080fd5b600080fd5b7f4e487b7100000000000000000000000000000000000000000000000000000000600052604160045260246000fd5b61301382612de7565b810181811067ffffffffffffffff8211171561303257613031612fdb565b5b80604052505050565b6000613045612cd2565b9050613051828261300a565b919050565b600067ffffffffffffffff82111561307157613070612fdb565b5b61307a82612de7565b9050602081019050919050565b82818337600083830152505050565b60006130a96130a484613056565b61303b565b9050828152602081018484840111156130c5576130c4612fd6565b5b6130d0848285613087565b509392505050565b600082601f8301126130ed576130ec612fd1565b5b81356130fd848260208601613096565b91505092915050565b60008060006060848603121561311f5761311e612cdc565b5b600084013567ffffffffffffffff81111561313d5761313c612ce1565b5b613149868287016130d8565b935050602084013567ffffffffffffffff81111561316a57613169612ce1565b5b613176868287016130d8565b925050604061318786828701612e74565b9150509250925092565b61319a81612e53565b82525050565b600082825260208201905092915050565b60006131bc82612da1565b6131c681856131a0565b93506131d6818560208601612dbd565b6131df81612de7565b840191505092915050565b60006080830160008301516132026000860182613191565b5060208301516132156020860182613191565b506040830151848203604086015261322d82826131b1565b9150506060830151848203606086015261324782826131b1565b9150508091505092915050565b6000602082019050818103600083015261326e81846131ea565b905092915050565b60006020828403121561328c5761328b612cdc565b5b600061329a84828501612f29565b91505092915050565b6132ac81612e53565b82525050565b60006020820190506132c760008301846132a3565b92915050565b600081519050919050565b600082825260208201905092915050565b6000819050602082019050919050565b61330281612ed6565b82525050565b7f4e487b7100000000000000000000000000000000000000000000000000000000600052602160045260246000fd5b6003811061334857613347613308565b5b50565b600081905061335982613337565b919050565b60006133698261334b565b9050919050565b6133798161335e565b82525050565b600060e08301600083015161339760008601826132f9565b5060208301516133aa6020860182613370565b5060408301516133bd6040860182613191565b5060608301516133d06060860182613191565b5060808301516133e36080860182613191565b5060a08301516133f660a0860182613191565b5060c083015184820360c086015261340e82826131b1565b9150508091505092915050565b6000613427838361337f565b905092915050565b6000602082019050919050565b6000613447826132cd565b61345181856132d8565b935083602082028501613463856132e9565b8060005b8581101561349f5784840389528151613480858261341b565b945061348b8361342f565b925060208a01995050600181019050613467565b50829750879550505050505092915050565b600060208201905081810360008301526134cb818461343c565b905092915050565b600080604083850312156134ea576134e9612cdc565b5b60006134f885828601612e74565b925050602061350985828601612e74565b9150509250929050565b600081519050919050565b600082825260208201905092915050565b6000819050602082019050919050565b60006080830160008301516135576000860182613191565b50602083015161356a6020860182613191565b506040830151848203604086015261358282826131b1565b9150506060830151848203606086015261359c82826131b1565b9150508091505092915050565b60006135b5838361353f565b905092915050565b6000602082019050919050565b60006135d582613513565b6135df818561351e565b9350836020820285016135f18561352f565b8060005b8581101561362d578484038952815161360e85826135a9565b9450613619836135bd565b925060208a019950506001810190506135f5565b50829750879550505050505092915050565b6000602082019050818103600083015261365981846135ca565b905092915050565b61366a81612d6b565b811461367557600080fd5b50565b60008135905061368781613661565b92915050565b600080604083850312156136a4576136a3612cdc565b5b60006136b285828601612f29565b92505060206136c385828601613678565b9150509250929050565b600060e0830160008301516136e560008601826132f9565b5060208301516136f86020860182613370565b50604083015161370b6040860182613191565b50606083015161371e6060860182613191565b5060808301516137316080860182613191565b5060a083015161374460a0860182613191565b5060c083015184820360c086015261375c82826131b1565b9150508091505092915050565b6000602082019050818103600083015261378381846136cd565b905092915050565b600067ffffffffffffffff8211156137a6576137a5612fdb565b5b6137af82612de7565b9050602081019050919050565b60006137cf6137ca8461378b565b61303b565b9050828152602081018484840111156137eb576137ea612fd6565b5b6137f6848285613087565b509392505050565b600082601f83011261381357613812612fd1565b5b81356138238482602086016137bc565b91505092915050565b6000806000806080858703121561384657613845612cdc565b5b600061385487828801612f29565b945050602061386587828801612f29565b935050604061387687828801612e74565b925050606085013567ffffffffffffffff81111561389757613896612ce1565b5b6138a3878288016137fe565b91505092959194509250565b600080604083850312156138c6576138c5612cdc565b5b60006138d485828601612f29565b92505060206138e585828601612f29565b9150509250929050565b7f4e487b7100000000000000000000000000000000000000000000000000000000600052602260045260246000fd5b6000600282049050600182168061393657607f821691505b602082108103613949576139486138ef565b5b50919050565b600060408201905061396460008301856132a3565b61397160208301846132a3565b9392505050565b7f4e487b7100000000000000000000000000000000000000000000000000000000600052601160045260246000fd5b60006139b282612e53565b91507fffffffffffffffffffffffffffffffffffffffffffffffffffffffffffffffff82036139e4576139e3613978565b5b600182019050919050565b60008190508160005260206000209050919050565b60006020601f8301049050919050565b600082821b905092915050565b600060088302613a517fffffffffffffffffffffffffffffffffffffffffffffffffffffffffffffffff82613a14565b613a5b8683613a14565b95508019841693508086168417925050509392505050565b6000819050919050565b6000613a98613a93613a8e84612e53565b613a73565b612e53565b9050919050565b6000819050919050565b613ab283613a7d565b613ac6613abe82613a9f565b848454613a21565b825550505050565b600090565b613adb613ace565b613ae6818484613aa9565b505050565b5b81811015613b0a57613aff600082613ad3565b600181019050613aec565b5050565b601f821115613b4f57613b20816139ef565b613b2984613a04565b81016020851015613b38578190505b613b4c613b4485613a04565b830182613aeb565b50505b505050565b600082821c905092915050565b6000613b7260001984600802613b54565b1980831691505092915050565b6000613b8b8383613b61565b9150826002028217905092915050565b613ba482612da1565b67ffffffffffffffff811115613bbd57613bbc612fdb565b5b613bc7825461391e565b613bd2828285613b0e565b600060209050601f831160018114613c055760008415613bf3578287015190505b613bfd8582613b7f565b865550613c65565b601f198416613c13866139ef565b60005b82811015613c3b57848901518255600182019150602085019450602081019050613c16565b86831015613c585784890151613c54601f891682613b61565b8355505b6001600288020188555050505b505050505050565b6000606082019050613c826000830186612ee8565b613c8f60208301856132a3565b613c9c6040830184612ee8565b949350505050565b600081905092915050565b6000613cba82612da1565b613cc48185613ca4565b9350613cd4818560208601612dbd565b80840191505092915050565b6000613cec8284613caf565b915081905092915050565b7f4e487b7100000000000000000000000000000000000000000000000000000000600052603260045260246000fd5b60008154613d338161391e565b613d3d8186613ca4565b94506001821660008114613d585760018114613d6d57613da0565b60ff1983168652811515820286019350613da0565b613d76856139ef565b60005b83811015613d9857815481890152600182019150602081019050613d79565b838801955050505b50505092915050565b6000613db58284613d26565b915081905092915050565b600060ff82169050919050565b6000613dd882613dc0565b915060ff8203613deb57613dea613978565b5b600182019050919050565b6000613e0182612e53565b9150613e0c83612e53565b9250828201905080821115613e2457613e23613978565b5b92915050565b6000613e3582612e53565b9150613e4083612e53565b9250828203905081811115613e5857613e57613978565b5b92915050565b6000613e6a8285613caf565b9150613e768284613caf565b91508190509392505050565b600081519050919050565b600082825260208201905092915050565b6000613ea982613e82565b613eb38185613e8d565b9350613ec3818560208601612dbd565b613ecc81612de7565b840191505092915050565b6000608082019050613eec6000830187612ee8565b613ef96020830186612ee8565b613f0660408301856132a3565b8181036060830152613f188184613e9e565b905095945050505050565b600081519050613f3281612d12565b92915050565b600060208284031215613f4e57613f4d612cdc565b5b6000613f5c84828501613f23565b91505092915050565b6000604082019050613f7a6000830185612ee8565b613f8760208301846132a3565b9392505050565b7f4e487b7100000000000000000000000000000000000000000000000000000000600052601260045260246000fdfea2646970667358221220d0476aab983c12f5086a02cc449d56bf454dc11846bf2ba0bb8ecff237ec2d7064736f6c63430008140033a264697066735822122012b19e676ddb7a2448ca6c447c15dfd83a2b6ae9b29875160255625a265019f564736f6c63430008140033",
  "devdoc": {
    "kind": "dev",
    "methods": {},
    "version": 1
  },
  "userdoc": {
    "kind": "user",
    "methods": {},
    "version": 1
  },
  "storageLayout": {
    "storage": [
      {
        "astId": 4172,
        "contract": "contracts/MemberMeFactory.sol:MemberMeFactory",
        "label": "contractAddresses",
        "offset": 0,
        "slot": "0",
        "type": "t_array(t_address)dyn_storage"
      }
    ],
    "types": {
      "t_address": {
        "encoding": "inplace",
        "label": "address",
        "numberOfBytes": "20"
      },
      "t_array(t_address)dyn_storage": {
        "base": "t_address",
        "encoding": "dynamic_array",
        "label": "address[]",
        "numberOfBytes": "32"
      }
    }
  }
}